{
  "contractName": "checkOwnership",
  "abi": [
    {
      "inputs": [
        {
          "internalType": "address",
          "name": "collectionContract",
          "type": "address"
        }
      ],
      "stateMutability": "nonpayable",
      "type": "constructor"
    },
    {
      "inputs": [],
      "name": "getBalanceOf",
      "outputs": [
        {
          "internalType": "uint256",
          "name": "",
          "type": "uint256"
        }
      ],
      "stateMutability": "view",
      "type": "function",
      "constant": true
    }
  ],
  "bytecode": "0x608060405234801561001057600080fd5b5060405161032b38038061032b833981810160405281019061003291906100db565b806000806101000a81548173ffffffffffffffffffffffffffffffffffffffff021916908373ffffffffffffffffffffffffffffffffffffffff16021790555050610108565b600080fd5b600073ffffffffffffffffffffffffffffffffffffffff82169050919050565b60006100a88261007d565b9050919050565b6100b88161009d565b81146100c357600080fd5b50565b6000815190506100d5816100af565b92915050565b6000602082840312156100f1576100f0610078565b5b60006100ff848285016100c6565b91505092915050565b610214806101176000396000f3fe608060405234801561001057600080fd5b506004361061002b5760003560e01c8063ecbde5e614610030575b600080fd5b61003861004e565b6040516100459190610109565b60405180910390f35b60008060009054906101000a900473ffffffffffffffffffffffffffffffffffffffff1673ffffffffffffffffffffffffffffffffffffffff166370a08231336040518263ffffffff1660e01b81526004016100aa9190610165565b602060405180830381865afa1580156100c7573d6000803e3d6000fd5b505050506040513d601f19601f820116820180604052508101906100eb91906101b1565b905090565b6000819050919050565b610103816100f0565b82525050565b600060208201905061011e60008301846100fa565b92915050565b600073ffffffffffffffffffffffffffffffffffffffff82169050919050565b600061014f82610124565b9050919050565b61015f81610144565b82525050565b600060208201905061017a6000830184610156565b92915050565b600080fd5b61018e816100f0565b811461019957600080fd5b50565b6000815190506101ab81610185565b92915050565b6000602082840312156101c7576101c6610180565b5b60006101d58482850161019c565b9150509291505056fea2646970667358221220cf9e991ccb42a63cc8e22ae43aba7627ff35f230f1bc5000c68e1538f799344e64736f6c634300080a0033",
  "immutableReferences": {},
  "source": "//SPDX-License-Identifier: MIT  \r\n\r\npragma solidity ^0.8.0;\r\n\r\nimport \"@openzeppelin/contracts/token/ERC721/IERC721.sol\";\r\n\r\ncontract checkOwnership {\r\n    IERC721 MyCollection;\r\n\r\n    constructor(address collectionContract) {\r\n        MyCollection = IERC721(collectionContract);\r\n    }\r\n\r\n    function getBalanceOf() public view returns(uint256){\r\n        return MyCollection.balanceOf(msg.sender);\r\n    }\r\n}",
  "sourcePath": "D:\\Documentos\\Trabajos\\NFT_test_ERC721\\src\\contracts\\Collaboration.sol",
  "compiler": {
    "name": "solc",
    "version": "0.8.10+commit.fc410830.Emscripten.clang"
  },
  "schemaVersion": "3.4.7",
  "updatedAt": "2022-06-27T14:26:33.458Z",
  "networkType": "ethereum",
  "devdoc": {
    "kind": "dev",
    "methods": {},
    "version": 1
  },
  "userdoc": {
    "kind": "user",
    "methods": {},
    "version": 1
  }
}