{
  "contractName": "checkOwnership",
  "abi": [
    {
      "inputs": [
        {
          "internalType": "address",
          "name": "collectionContract",
          "type": "address"
        }
      ],
      "stateMutability": "nonpayable",
      "type": "constructor"
    },
    {
      "inputs": [],
      "name": "getBalanceOf",
      "outputs": [
        {
          "internalType": "bool",
          "name": "",
          "type": "bool"
        }
      ],
      "stateMutability": "view",
      "type": "function",
      "constant": true
    }
  ],
  "bytecode": "0x608060405234801561001057600080fd5b50604051610338380380610338833981810160405281019061003291906100db565b806000806101000a81548173ffffffffffffffffffffffffffffffffffffffff021916908373ffffffffffffffffffffffffffffffffffffffff16021790555050610108565b600080fd5b600073ffffffffffffffffffffffffffffffffffffffff82169050919050565b60006100a88261007d565b9050919050565b6100b88161009d565b81146100c357600080fd5b50565b6000815190506100d5816100af565b92915050565b6000602082840312156100f1576100f0610078565b5b60006100ff848285016100c6565b91505092915050565b610221806101176000396000f3fe608060405234801561001057600080fd5b506004361061002b5760003560e01c8063ecbde5e614610030575b600080fd5b61003861004e565b604051610045919061010c565b60405180910390f35b60008060008054906101000a900473ffffffffffffffffffffffffffffffffffffffff1673ffffffffffffffffffffffffffffffffffffffff166370a08231336040518263ffffffff1660e01b81526004016100aa9190610168565b602060405180830381865afa1580156100c7573d6000803e3d6000fd5b505050506040513d601f19601f820116820180604052508101906100eb91906101be565b11905090565b60008115159050919050565b610106816100f1565b82525050565b600060208201905061012160008301846100fd565b92915050565b600073ffffffffffffffffffffffffffffffffffffffff82169050919050565b600061015282610127565b9050919050565b61016281610147565b82525050565b600060208201905061017d6000830184610159565b92915050565b600080fd5b6000819050919050565b61019b81610188565b81146101a657600080fd5b50565b6000815190506101b881610192565b92915050565b6000602082840312156101d4576101d3610183565b5b60006101e2848285016101a9565b9150509291505056fea26469706673582212200077775be08afd421e16aa58dae8ba05edf4669c60a46cbee246857fc5023d0364736f6c634300080a0033",
  "immutableReferences": {},
  "source": "//SPDX-License-Identifier: MIT  \r\n\r\npragma solidity ^0.8.0;\r\n\r\nimport \"@openzeppelin/contracts/token/ERC721/IERC721.sol\";\r\n\r\ncontract checkOwnership {\r\n    IERC721 MyCollection;\r\n\r\n    constructor(address collectionContract) {\r\n        MyCollection = IERC721(collectionContract);\r\n    }\r\n\r\n    function getBalanceOf() public view returns(bool){\r\n        return MyCollection.balanceOf(msg.sender) > 0;\r\n    }\r\n}",
  "sourcePath": "D:\\Documentos\\Trabajos\\NFT_test_ERC721\\src\\contracts\\Collaboration.sol",
  "compiler": {
    "name": "solc",
    "version": "0.8.10+commit.fc410830.Emscripten.clang"
  },
  "schemaVersion": "3.4.7",
  "updatedAt": "2022-06-29T07:46:28.727Z",
  "networkType": "ethereum",
  "devdoc": {
    "kind": "dev",
    "methods": {},
    "version": 1
  },
  "userdoc": {
    "kind": "user",
    "methods": {},
    "version": 1
  }
}