{
  "contractName": "FirstCollection",
  "abi": [
    {
      "inputs": [
        {
          "internalType": "string",
          "name": "newNonRevealURI",
          "type": "string"
        }
      ],
      "stateMutability": "nonpayable",
      "type": "constructor"
    },
    {
      "anonymous": false,
      "inputs": [
        {
          "indexed": true,
          "internalType": "address",
          "name": "owner",
          "type": "address"
        },
        {
          "indexed": true,
          "internalType": "address",
          "name": "approved",
          "type": "address"
        },
        {
          "indexed": true,
          "internalType": "uint256",
          "name": "tokenId",
          "type": "uint256"
        }
      ],
      "name": "Approval",
      "type": "event"
    },
    {
      "anonymous": false,
      "inputs": [
        {
          "indexed": true,
          "internalType": "address",
          "name": "owner",
          "type": "address"
        },
        {
          "indexed": true,
          "internalType": "address",
          "name": "operator",
          "type": "address"
        },
        {
          "indexed": false,
          "internalType": "bool",
          "name": "approved",
          "type": "bool"
        }
      ],
      "name": "ApprovalForAll",
      "type": "event"
    },
    {
      "anonymous": false,
      "inputs": [
        {
          "indexed": true,
          "internalType": "address",
          "name": "previousOwner",
          "type": "address"
        },
        {
          "indexed": true,
          "internalType": "address",
          "name": "newOwner",
          "type": "address"
        }
      ],
      "name": "OwnershipTransferred",
      "type": "event"
    },
    {
      "anonymous": false,
      "inputs": [
        {
          "indexed": true,
          "internalType": "address",
          "name": "from",
          "type": "address"
        },
        {
          "indexed": true,
          "internalType": "address",
          "name": "to",
          "type": "address"
        },
        {
          "indexed": true,
          "internalType": "uint256",
          "name": "tokenId",
          "type": "uint256"
        }
      ],
      "name": "Transfer",
      "type": "event"
    },
    {
      "inputs": [
        {
          "internalType": "address",
          "name": "to",
          "type": "address"
        },
        {
          "internalType": "uint256",
          "name": "tokenId",
          "type": "uint256"
        }
      ],
      "name": "approve",
      "outputs": [],
      "stateMutability": "nonpayable",
      "type": "function"
    },
    {
      "inputs": [
        {
          "internalType": "address",
          "name": "owner",
          "type": "address"
        }
      ],
      "name": "balanceOf",
      "outputs": [
        {
          "internalType": "uint256",
          "name": "",
          "type": "uint256"
        }
      ],
      "stateMutability": "view",
      "type": "function",
      "constant": true
    },
    {
      "inputs": [
        {
          "internalType": "uint256",
          "name": "tokenId",
          "type": "uint256"
        }
      ],
      "name": "getApproved",
      "outputs": [
        {
          "internalType": "address",
          "name": "",
          "type": "address"
        }
      ],
      "stateMutability": "view",
      "type": "function",
      "constant": true
    },
    {
      "inputs": [
        {
          "internalType": "address",
          "name": "owner",
          "type": "address"
        },
        {
          "internalType": "address",
          "name": "operator",
          "type": "address"
        }
      ],
      "name": "isApprovedForAll",
      "outputs": [
        {
          "internalType": "bool",
          "name": "",
          "type": "bool"
        }
      ],
      "stateMutability": "view",
      "type": "function",
      "constant": true
    },
    {
      "inputs": [],
      "name": "name",
      "outputs": [
        {
          "internalType": "string",
          "name": "",
          "type": "string"
        }
      ],
      "stateMutability": "view",
      "type": "function",
      "constant": true
    },
    {
      "inputs": [],
      "name": "owner",
      "outputs": [
        {
          "internalType": "address",
          "name": "",
          "type": "address"
        }
      ],
      "stateMutability": "view",
      "type": "function",
      "constant": true
    },
    {
      "inputs": [
        {
          "internalType": "uint256",
          "name": "tokenId",
          "type": "uint256"
        }
      ],
      "name": "ownerOf",
      "outputs": [
        {
          "internalType": "address",
          "name": "",
          "type": "address"
        }
      ],
      "stateMutability": "view",
      "type": "function",
      "constant": true
    },
    {
      "inputs": [],
      "name": "renounceOwnership",
      "outputs": [],
      "stateMutability": "nonpayable",
      "type": "function"
    },
    {
      "inputs": [
        {
          "internalType": "address",
          "name": "from",
          "type": "address"
        },
        {
          "internalType": "address",
          "name": "to",
          "type": "address"
        },
        {
          "internalType": "uint256",
          "name": "tokenId",
          "type": "uint256"
        }
      ],
      "name": "safeTransferFrom",
      "outputs": [],
      "stateMutability": "nonpayable",
      "type": "function"
    },
    {
      "inputs": [
        {
          "internalType": "address",
          "name": "from",
          "type": "address"
        },
        {
          "internalType": "address",
          "name": "to",
          "type": "address"
        },
        {
          "internalType": "uint256",
          "name": "tokenId",
          "type": "uint256"
        },
        {
          "internalType": "bytes",
          "name": "data",
          "type": "bytes"
        }
      ],
      "name": "safeTransferFrom",
      "outputs": [],
      "stateMutability": "nonpayable",
      "type": "function"
    },
    {
      "inputs": [
        {
          "internalType": "address",
          "name": "operator",
          "type": "address"
        },
        {
          "internalType": "bool",
          "name": "approved",
          "type": "bool"
        }
      ],
      "name": "setApprovalForAll",
      "outputs": [],
      "stateMutability": "nonpayable",
      "type": "function"
    },
    {
      "inputs": [
        {
          "internalType": "bytes4",
          "name": "interfaceId",
          "type": "bytes4"
        }
      ],
      "name": "supportsInterface",
      "outputs": [
        {
          "internalType": "bool",
          "name": "",
          "type": "bool"
        }
      ],
      "stateMutability": "view",
      "type": "function",
      "constant": true
    },
    {
      "inputs": [],
      "name": "symbol",
      "outputs": [
        {
          "internalType": "string",
          "name": "",
          "type": "string"
        }
      ],
      "stateMutability": "view",
      "type": "function",
      "constant": true
    },
    {
      "inputs": [
        {
          "internalType": "address",
          "name": "from",
          "type": "address"
        },
        {
          "internalType": "address",
          "name": "to",
          "type": "address"
        },
        {
          "internalType": "uint256",
          "name": "tokenId",
          "type": "uint256"
        }
      ],
      "name": "transferFrom",
      "outputs": [],
      "stateMutability": "nonpayable",
      "type": "function"
    },
    {
      "inputs": [
        {
          "internalType": "address",
          "name": "newOwner",
          "type": "address"
        }
      ],
      "name": "transferOwnership",
      "outputs": [],
      "stateMutability": "nonpayable",
      "type": "function"
    },
    {
      "inputs": [],
      "name": "mint",
      "outputs": [],
      "stateMutability": "payable",
      "type": "function",
      "payable": true
    },
    {
      "inputs": [
        {
          "internalType": "string",
          "name": "newBaseURI",
          "type": "string"
        }
      ],
      "name": "revealPhase",
      "outputs": [],
      "stateMutability": "nonpayable",
      "type": "function"
    },
    {
      "inputs": [
        {
          "internalType": "uint256",
          "name": "tokenId",
          "type": "uint256"
        }
      ],
      "name": "tokenURI",
      "outputs": [
        {
          "internalType": "string",
          "name": "",
          "type": "string"
        }
      ],
      "stateMutability": "view",
      "type": "function",
      "constant": true
    }
  ],
  "bytecode": "0x60806040526000600955670de0b6b3a7640000600b553480156200002257600080fd5b50604051620039c5380380620039c583398181016040528101906200004891906200037b565b6040518060400160405280601081526020017f466972737420436f6c6c656374696f6e000000000000000000000000000000008152506040518060400160405280600381526020017f31434f00000000000000000000000000000000000000000000000000000000008152508160009081620000c5919062000617565b508060019081620000d7919062000617565b505050620000fa620000ee6200011a60201b60201c565b6200012260201b60201c565b80600790816200010b919062000617565b5042600a8190555050620006fe565b600033905090565b6000600660009054906101000a900473ffffffffffffffffffffffffffffffffffffffff16905081600660006101000a81548173ffffffffffffffffffffffffffffffffffffffff021916908373ffffffffffffffffffffffffffffffffffffffff1602179055508173ffffffffffffffffffffffffffffffffffffffff168173ffffffffffffffffffffffffffffffffffffffff167f8be0079c531659141344cd1fd0a4f28419497f9722a3daafe3b4186f6b6457e060405160405180910390a35050565b6000604051905090565b600080fd5b600080fd5b600080fd5b600080fd5b6000601f19601f8301169050919050565b7f4e487b7100000000000000000000000000000000000000000000000000000000600052604160045260246000fd5b620002518262000206565b810181811067ffffffffffffffff8211171562000273576200027262000217565b5b80604052505050565b600062000288620001e8565b905062000296828262000246565b919050565b600067ffffffffffffffff821115620002b957620002b862000217565b5b620002c48262000206565b9050602081019050919050565b60005b83811015620002f1578082015181840152602081019050620002d4565b60008484015250505050565b6000620003146200030e846200029b565b6200027c565b90508281526020810184848401111562000333576200033262000201565b5b62000340848285620002d1565b509392505050565b600082601f83011262000360576200035f620001fc565b5b815162000372848260208601620002fd565b91505092915050565b600060208284031215620003945762000393620001f2565b5b600082015167ffffffffffffffff811115620003b557620003b4620001f7565b5b620003c38482850162000348565b91505092915050565b600081519050919050565b7f4e487b7100000000000000000000000000000000000000000000000000000000600052602260045260246000fd5b600060028204905060018216806200041f57607f821691505b602082108103620004355762000434620003d7565b5b50919050565b60008190508160005260206000209050919050565b60006020601f8301049050919050565b600082821b905092915050565b6000600883026200049f7fffffffffffffffffffffffffffffffffffffffffffffffffffffffffffffffff8262000460565b620004ab868362000460565b95508019841693508086168417925050509392505050565b6000819050919050565b6000819050919050565b6000620004f8620004f2620004ec84620004c3565b620004cd565b620004c3565b9050919050565b6000819050919050565b6200051483620004d7565b6200052c6200052382620004ff565b8484546200046d565b825550505050565b600090565b6200054362000534565b6200055081848462000509565b505050565b5b8181101562000578576200056c60008262000539565b60018101905062000556565b5050565b601f821115620005c75762000591816200043b565b6200059c8462000450565b81016020851015620005ac578190505b620005c4620005bb8562000450565b83018262000555565b50505b505050565b600082821c905092915050565b6000620005ec60001984600802620005cc565b1980831691505092915050565b6000620006078383620005d9565b9150826002028217905092915050565b6200062282620003cc565b67ffffffffffffffff8111156200063e576200063d62000217565b5b6200064a825462000406565b620006578282856200057c565b600060209050601f8311600181146200068f57600084156200067a578287015190505b620006868582620005f9565b865550620006f6565b601f1984166200069f866200043b565b60005b82811015620006c957848901518255600182019150602085019450602081019050620006a2565b86831015620006e95784890151620006e5601f891682620005d9565b8355505b6001600288020188555050505b505050505050565b6132b7806200070e6000396000f3fe6080604052600436106101095760003560e01c8063715018a611610095578063b88d4fde11610064578063b88d4fde14610348578063c87b56dd14610371578063cd197946146103ae578063e985e9c5146103d7578063f2fde38b1461041457610109565b8063715018a6146102b25780638da5cb5b146102c957806395d89b41146102f4578063a22cb4651461031f57610109565b80631249c58b116100dc5780631249c58b146101dc57806323b872dd146101e657806342842e0e1461020f5780636352211e1461023857806370a082311461027557610109565b806301ffc9a71461010e57806306fdde031461014b578063081812fc14610176578063095ea7b3146101b3575b600080fd5b34801561011a57600080fd5b5061013560048036038101906101309190611d40565b61043d565b6040516101429190611d88565b60405180910390f35b34801561015757600080fd5b5061016061051f565b60405161016d9190611e33565b60405180910390f35b34801561018257600080fd5b5061019d60048036038101906101989190611e8b565b6105b1565b6040516101aa9190611ef9565b60405180910390f35b3480156101bf57600080fd5b506101da60048036038101906101d59190611f40565b6105f7565b005b6101e461070e565b005b3480156101f257600080fd5b5061020d60048036038101906102089190611f80565b6108c6565b005b34801561021b57600080fd5b5061023660048036038101906102319190611f80565b610926565b005b34801561024457600080fd5b5061025f600480360381019061025a9190611e8b565b610946565b60405161026c9190611ef9565b60405180910390f35b34801561028157600080fd5b5061029c60048036038101906102979190611fd3565b6109cc565b6040516102a9919061200f565b60405180910390f35b3480156102be57600080fd5b506102c7610a83565b005b3480156102d557600080fd5b506102de610a97565b6040516102eb9190611ef9565b60405180910390f35b34801561030057600080fd5b50610309610ac1565b6040516103169190611e33565b60405180910390f35b34801561032b57600080fd5b5061034660048036038101906103419190612056565b610b53565b005b34801561035457600080fd5b5061036f600480360381019061036a91906121cb565b610b69565b005b34801561037d57600080fd5b5061039860048036038101906103939190611e8b565b610bcb565b6040516103a59190611e33565b60405180910390f35b3480156103ba57600080fd5b506103d560048036038101906103d091906122ef565b610c3d565b005b3480156103e357600080fd5b506103fe60048036038101906103f99190612338565b610d3b565b60405161040b9190611d88565b60405180910390f35b34801561042057600080fd5b5061043b60048036038101906104369190611fd3565b610dcf565b005b60007f80ac58cd000000000000000000000000000000000000000000000000000000007bffffffffffffffffffffffffffffffffffffffffffffffffffffffff1916827bffffffffffffffffffffffffffffffffffffffffffffffffffffffff1916148061050857507f5b5e139f000000000000000000000000000000000000000000000000000000007bffffffffffffffffffffffffffffffffffffffffffffffffffffffff1916827bffffffffffffffffffffffffffffffffffffffffffffffffffffffff1916145b80610518575061051782610e52565b5b9050919050565b60606000805461052e906123a7565b80601f016020809104026020016040519081016040528092919081815260200182805461055a906123a7565b80156105a75780601f1061057c576101008083540402835291602001916105a7565b820191906000526020600020905b81548152906001019060200180831161058a57829003601f168201915b5050505050905090565b60006105bc82610ebc565b6004600083815260200190815260200160002060009054906101000a900473ffffffffffffffffffffffffffffffffffffffff169050919050565b600061060282610946565b90508073ffffffffffffffffffffffffffffffffffffffff168373ffffffffffffffffffffffffffffffffffffffff1603610672576040517f08c379a00000000000000000000000000000000000000000000000000000000081526004016106699061244a565b60405180910390fd5b8073ffffffffffffffffffffffffffffffffffffffff16610691610f07565b73ffffffffffffffffffffffffffffffffffffffff1614806106c057506106bf816106ba610f07565b610d3b565b5b6106ff576040517f08c379a00000000000000000000000000000000000000000000000000000000081526004016106f6906124dc565b60405180910390fd5b6107098383610f0f565b505050565b426203f480600a54610720919061252b565b1115610761576040517f08c379a0000000000000000000000000000000000000000000000000000000008152600401610758906125ab565b60405180910390fd5b6005600954106107a6576040517f08c379a000000000000000000000000000000000000000000000000000000000815260040161079d90612617565b60405180910390fd5b600b5434146107ea576040517f08c379a00000000000000000000000000000000000000000000000000000000081526004016107e190612683565b60405180910390fd5b6001600960008282546107fd919061252b565b9250508190555061081033600954610fc8565b600061081a610a97565b73ffffffffffffffffffffffffffffffffffffffff163460405161083d906126d4565b60006040518083038185875af1925050503d806000811461087a576040519150601f19603f3d011682016040523d82523d6000602084013e61087f565b606091505b50509050806108c3576040517f08c379a00000000000000000000000000000000000000000000000000000000081526004016108ba90612735565b60405180910390fd5b50565b6108d76108d1610f07565b826111e5565b610916576040517f08c379a000000000000000000000000000000000000000000000000000000000815260040161090d906127c7565b60405180910390fd5b61092183838361127a565b505050565b61094183838360405180602001604052806000815250610b69565b505050565b60008061095283611573565b9050600073ffffffffffffffffffffffffffffffffffffffff168173ffffffffffffffffffffffffffffffffffffffff16036109c3576040517f08c379a00000000000000000000000000000000000000000000000000000000081526004016109ba90612833565b60405180910390fd5b80915050919050565b60008073ffffffffffffffffffffffffffffffffffffffff168273ffffffffffffffffffffffffffffffffffffffff1603610a3c576040517f08c379a0000000000000000000000000000000000000000000000000000000008152600401610a33906128c5565b60405180910390fd5b600360008373ffffffffffffffffffffffffffffffffffffffff1673ffffffffffffffffffffffffffffffffffffffff168152602001908152602001600020549050919050565b610a8b6115b0565b610a95600061162e565b565b6000600660009054906101000a900473ffffffffffffffffffffffffffffffffffffffff16905090565b606060018054610ad0906123a7565b80601f0160208091040260200160405190810160405280929190818152602001828054610afc906123a7565b8015610b495780601f10610b1e57610100808354040283529160200191610b49565b820191906000526020600020905b815481529060010190602001808311610b2c57829003601f168201915b5050505050905090565b610b65610b5e610f07565b83836116f4565b5050565b610b7a610b74610f07565b836111e5565b610bb9576040517f08c379a0000000000000000000000000000000000000000000000000000000008152600401610bb0906127c7565b60405180910390fd5b610bc584848484611860565b50505050565b6060600c60009054906101000a900460ff1615610c14576008610bed836118bc565b604051602001610bfe929190612a05565b6040516020818303038152906040529050610c38565b6007604051602001610c269190612a80565b60405160208183030381529060405290505b919050565b610c456115b0565b426203f480600a54610c57919061252b565b1115610c98576040517f08c379a0000000000000000000000000000000000000000000000000000000008152600401610c8f906125ab565b60405180910390fd5b60004290508062093a80600a54610caf919061252b565b11158015610ccd57508062127500600a54610cca919061252b565b10155b610d0c576040517f08c379a0000000000000000000000000000000000000000000000000000000008152600401610d0390612aee565b60405180910390fd5b6001600c60006101000a81548160ff0219169083151502179055508160089081610d369190612ca5565b505050565b6000600560008473ffffffffffffffffffffffffffffffffffffffff1673ffffffffffffffffffffffffffffffffffffffff16815260200190815260200160002060008373ffffffffffffffffffffffffffffffffffffffff1673ffffffffffffffffffffffffffffffffffffffff16815260200190815260200160002060009054906101000a900460ff16905092915050565b610dd76115b0565b600073ffffffffffffffffffffffffffffffffffffffff168173ffffffffffffffffffffffffffffffffffffffff1603610e46576040517f08c379a0000000000000000000000000000000000000000000000000000000008152600401610e3d90612de9565b60405180910390fd5b610e4f8161162e565b50565b60007f01ffc9a7000000000000000000000000000000000000000000000000000000007bffffffffffffffffffffffffffffffffffffffffffffffffffffffff1916827bffffffffffffffffffffffffffffffffffffffffffffffffffffffff1916149050919050565b610ec58161198a565b610f04576040517f08c379a0000000000000000000000000000000000000000000000000000000008152600401610efb90612833565b60405180910390fd5b50565b600033905090565b816004600083815260200190815260200160002060006101000a81548173ffffffffffffffffffffffffffffffffffffffff021916908373ffffffffffffffffffffffffffffffffffffffff160217905550808273ffffffffffffffffffffffffffffffffffffffff16610f8283610946565b73ffffffffffffffffffffffffffffffffffffffff167f8c5be1e5ebec7d5bd14f71427d1e84f3dd0314c0f7b2291e5b200ac8c7c3b92560405160405180910390a45050565b600073ffffffffffffffffffffffffffffffffffffffff168273ffffffffffffffffffffffffffffffffffffffff1603611037576040517f08c379a000000000000000000000000000000000000000000000000000000000815260040161102e90612e55565b60405180910390fd5b6110408161198a565b15611080576040517f08c379a000000000000000000000000000000000000000000000000000000000815260040161107790612ec1565b60405180910390fd5b61108e6000838360016119cb565b6110978161198a565b156110d7576040517f08c379a00000000000000000000000000000000000000000000000000000000081526004016110ce90612ec1565b60405180910390fd5b6001600360008473ffffffffffffffffffffffffffffffffffffffff1673ffffffffffffffffffffffffffffffffffffffff16815260200190815260200160002060008282540192505081905550816002600083815260200190815260200160002060006101000a81548173ffffffffffffffffffffffffffffffffffffffff021916908373ffffffffffffffffffffffffffffffffffffffff160217905550808273ffffffffffffffffffffffffffffffffffffffff16600073ffffffffffffffffffffffffffffffffffffffff167fddf252ad1be2c89b69c2b068fc378daa952ba7f163c4a11628f55a4df523b3ef60405160405180910390a46111e16000838360016119d1565b5050565b6000806111f183610946565b90508073ffffffffffffffffffffffffffffffffffffffff168473ffffffffffffffffffffffffffffffffffffffff16148061123357506112328185610d3b565b5b8061127157508373ffffffffffffffffffffffffffffffffffffffff16611259846105b1565b73ffffffffffffffffffffffffffffffffffffffff16145b91505092915050565b8273ffffffffffffffffffffffffffffffffffffffff1661129a82610946565b73ffffffffffffffffffffffffffffffffffffffff16146112f0576040517f08c379a00000000000000000000000000000000000000000000000000000000081526004016112e790612f53565b60405180910390fd5b600073ffffffffffffffffffffffffffffffffffffffff168273ffffffffffffffffffffffffffffffffffffffff160361135f576040517f08c379a000000000000000000000000000000000000000000000000000000000815260040161135690612fe5565b60405180910390fd5b61136c83838360016119cb565b8273ffffffffffffffffffffffffffffffffffffffff1661138c82610946565b73ffffffffffffffffffffffffffffffffffffffff16146113e2576040517f08c379a00000000000000000000000000000000000000000000000000000000081526004016113d990612f53565b60405180910390fd5b6004600082815260200190815260200160002060006101000a81549073ffffffffffffffffffffffffffffffffffffffff02191690556001600360008573ffffffffffffffffffffffffffffffffffffffff1673ffffffffffffffffffffffffffffffffffffffff168152602001908152602001600020600082825403925050819055506001600360008473ffffffffffffffffffffffffffffffffffffffff1673ffffffffffffffffffffffffffffffffffffffff16815260200190815260200160002060008282540192505081905550816002600083815260200190815260200160002060006101000a81548173ffffffffffffffffffffffffffffffffffffffff021916908373ffffffffffffffffffffffffffffffffffffffff160217905550808273ffffffffffffffffffffffffffffffffffffffff168473ffffffffffffffffffffffffffffffffffffffff167fddf252ad1be2c89b69c2b068fc378daa952ba7f163c4a11628f55a4df523b3ef60405160405180910390a461156e83838360016119d1565b505050565b60006002600083815260200190815260200160002060009054906101000a900473ffffffffffffffffffffffffffffffffffffffff169050919050565b6115b8610f07565b73ffffffffffffffffffffffffffffffffffffffff166115d6610a97565b73ffffffffffffffffffffffffffffffffffffffff161461162c576040517f08c379a000000000000000000000000000000000000000000000000000000000815260040161162390613051565b60405180910390fd5b565b6000600660009054906101000a900473ffffffffffffffffffffffffffffffffffffffff16905081600660006101000a81548173ffffffffffffffffffffffffffffffffffffffff021916908373ffffffffffffffffffffffffffffffffffffffff1602179055508173ffffffffffffffffffffffffffffffffffffffff168173ffffffffffffffffffffffffffffffffffffffff167f8be0079c531659141344cd1fd0a4f28419497f9722a3daafe3b4186f6b6457e060405160405180910390a35050565b8173ffffffffffffffffffffffffffffffffffffffff168373ffffffffffffffffffffffffffffffffffffffff1603611762576040517f08c379a0000000000000000000000000000000000000000000000000000000008152600401611759906130bd565b60405180910390fd5b80600560008573ffffffffffffffffffffffffffffffffffffffff1673ffffffffffffffffffffffffffffffffffffffff16815260200190815260200160002060008473ffffffffffffffffffffffffffffffffffffffff1673ffffffffffffffffffffffffffffffffffffffff16815260200190815260200160002060006101000a81548160ff0219169083151502179055508173ffffffffffffffffffffffffffffffffffffffff168373ffffffffffffffffffffffffffffffffffffffff167f17307eab39ab6107e8899845ad3d59bd9653f200f220920489ca2b5937696c31836040516118539190611d88565b60405180910390a3505050565b61186b84848461127a565b611877848484846119d7565b6118b6576040517f08c379a00000000000000000000000000000000000000000000000000000000081526004016118ad9061314f565b60405180910390fd5b50505050565b6060600060016118cb84611b5e565b01905060008167ffffffffffffffff8111156118ea576118e96120a0565b5b6040519080825280601f01601f19166020018201604052801561191c5781602001600182028036833780820191505090505b509050600082602001820190505b60011561197f578080600190039150507f3031323334353637383961626364656600000000000000000000000000000000600a86061a8153600a85816119735761197261316f565b5b0494506000850361192a575b819350505050919050565b60008073ffffffffffffffffffffffffffffffffffffffff166119ac83611573565b73ffffffffffffffffffffffffffffffffffffffff1614159050919050565b50505050565b50505050565b60006119f88473ffffffffffffffffffffffffffffffffffffffff16611cb1565b15611b51578373ffffffffffffffffffffffffffffffffffffffff1663150b7a02611a21610f07565b8786866040518563ffffffff1660e01b8152600401611a4394939291906131f3565b6020604051808303816000875af1925050508015611a7f57506040513d601f19601f82011682018060405250810190611a7c9190613254565b60015b611b01573d8060008114611aaf576040519150601f19603f3d011682016040523d82523d6000602084013e611ab4565b606091505b506000815103611af9576040517f08c379a0000000000000000000000000000000000000000000000000000000008152600401611af09061314f565b60405180910390fd5b805181602001fd5b63150b7a0260e01b7bffffffffffffffffffffffffffffffffffffffffffffffffffffffff1916817bffffffffffffffffffffffffffffffffffffffffffffffffffffffff191614915050611b56565b600190505b949350505050565b600080600090507a184f03e93ff9f4daa797ed6e38ed64bf6a1f0100000000000000008310611bbc577a184f03e93ff9f4daa797ed6e38ed64bf6a1f0100000000000000008381611bb257611bb161316f565b5b0492506040810190505b6d04ee2d6d415b85acef81000000008310611bf9576d04ee2d6d415b85acef81000000008381611bef57611bee61316f565b5b0492506020810190505b662386f26fc100008310611c2857662386f26fc100008381611c1e57611c1d61316f565b5b0492506010810190505b6305f5e1008310611c51576305f5e1008381611c4757611c4661316f565b5b0492506008810190505b6127108310611c76576127108381611c6c57611c6b61316f565b5b0492506004810190505b60648310611c995760648381611c8f57611c8e61316f565b5b0492506002810190505b600a8310611ca8576001810190505b80915050919050565b6000808273ffffffffffffffffffffffffffffffffffffffff163b119050919050565b6000604051905090565b600080fd5b600080fd5b60007fffffffff0000000000000000000000000000000000000000000000000000000082169050919050565b611d1d81611ce8565b8114611d2857600080fd5b50565b600081359050611d3a81611d14565b92915050565b600060208284031215611d5657611d55611cde565b5b6000611d6484828501611d2b565b91505092915050565b60008115159050919050565b611d8281611d6d565b82525050565b6000602082019050611d9d6000830184611d79565b92915050565b600081519050919050565b600082825260208201905092915050565b60005b83811015611ddd578082015181840152602081019050611dc2565b60008484015250505050565b6000601f19601f8301169050919050565b6000611e0582611da3565b611e0f8185611dae565b9350611e1f818560208601611dbf565b611e2881611de9565b840191505092915050565b60006020820190508181036000830152611e4d8184611dfa565b905092915050565b6000819050919050565b611e6881611e55565b8114611e7357600080fd5b50565b600081359050611e8581611e5f565b92915050565b600060208284031215611ea157611ea0611cde565b5b6000611eaf84828501611e76565b91505092915050565b600073ffffffffffffffffffffffffffffffffffffffff82169050919050565b6000611ee382611eb8565b9050919050565b611ef381611ed8565b82525050565b6000602082019050611f0e6000830184611eea565b92915050565b611f1d81611ed8565b8114611f2857600080fd5b50565b600081359050611f3a81611f14565b92915050565b60008060408385031215611f5757611f56611cde565b5b6000611f6585828601611f2b565b9250506020611f7685828601611e76565b9150509250929050565b600080600060608486031215611f9957611f98611cde565b5b6000611fa786828701611f2b565b9350506020611fb886828701611f2b565b9250506040611fc986828701611e76565b9150509250925092565b600060208284031215611fe957611fe8611cde565b5b6000611ff784828501611f2b565b91505092915050565b61200981611e55565b82525050565b60006020820190506120246000830184612000565b92915050565b61203381611d6d565b811461203e57600080fd5b50565b6000813590506120508161202a565b92915050565b6000806040838503121561206d5761206c611cde565b5b600061207b85828601611f2b565b925050602061208c85828601612041565b9150509250929050565b600080fd5b600080fd5b7f4e487b7100000000000000000000000000000000000000000000000000000000600052604160045260246000fd5b6120d882611de9565b810181811067ffffffffffffffff821117156120f7576120f66120a0565b5b80604052505050565b600061210a611cd4565b905061211682826120cf565b919050565b600067ffffffffffffffff821115612136576121356120a0565b5b61213f82611de9565b9050602081019050919050565b82818337600083830152505050565b600061216e6121698461211b565b612100565b90508281526020810184848401111561218a5761218961209b565b5b61219584828561214c565b509392505050565b600082601f8301126121b2576121b1612096565b5b81356121c284826020860161215b565b91505092915050565b600080600080608085870312156121e5576121e4611cde565b5b60006121f387828801611f2b565b945050602061220487828801611f2b565b935050604061221587828801611e76565b925050606085013567ffffffffffffffff81111561223657612235611ce3565b5b6122428782880161219d565b91505092959194509250565b600067ffffffffffffffff821115612269576122686120a0565b5b61227282611de9565b9050602081019050919050565b600061229261228d8461224e565b612100565b9050828152602081018484840111156122ae576122ad61209b565b5b6122b984828561214c565b509392505050565b600082601f8301126122d6576122d5612096565b5b81356122e684826020860161227f565b91505092915050565b60006020828403121561230557612304611cde565b5b600082013567ffffffffffffffff81111561232357612322611ce3565b5b61232f848285016122c1565b91505092915050565b6000806040838503121561234f5761234e611cde565b5b600061235d85828601611f2b565b925050602061236e85828601611f2b565b9150509250929050565b7f4e487b7100000000000000000000000000000000000000000000000000000000600052602260045260246000fd5b600060028204905060018216806123bf57607f821691505b6020821081036123d2576123d1612378565b5b50919050565b7f4552433732313a20617070726f76616c20746f2063757272656e74206f776e6560008201527f7200000000000000000000000000000000000000000000000000000000000000602082015250565b6000612434602183611dae565b915061243f826123d8565b604082019050919050565b6000602082019050818103600083015261246381612427565b9050919050565b7f4552433732313a20617070726f76652063616c6c6572206973206e6f7420746f60008201527f6b656e206f776e6572206f7220617070726f76656420666f7220616c6c000000602082015250565b60006124c6603d83611dae565b91506124d18261246a565b604082019050919050565b600060208201905081810360008301526124f5816124b9565b9050919050565b7f4e487b7100000000000000000000000000000000000000000000000000000000600052601160045260246000fd5b600061253682611e55565b915061254183611e55565b9250828201905080821115612559576125586124fc565b5b92915050565b7f4d696e742069732064697361626c656400000000000000000000000000000000600082015250565b6000612595601083611dae565b91506125a08261255f565b602082019050919050565b600060208201905081810360008301526125c481612588565b9050919050565b7f416c6c20746f6b656e73206d696e746564000000000000000000000000000000600082015250565b6000612601601183611dae565b915061260c826125cb565b602082019050919050565b60006020820190508181036000830152612630816125f4565b9050919050565b7f5072696365206973206e6f7420636f7272656374000000000000000000000000600082015250565b600061266d601483611dae565b915061267882612637565b602082019050919050565b6000602082019050818103600083015261269c81612660565b9050919050565b600081905092915050565b50565b60006126be6000836126a3565b91506126c9826126ae565b600082019050919050565b60006126df826126b1565b9150819050919050565b7f5061796d656e74206661696c0000000000000000000000000000000000000000600082015250565b600061271f600c83611dae565b915061272a826126e9565b602082019050919050565b6000602082019050818103600083015261274e81612712565b9050919050565b7f4552433732313a2063616c6c6572206973206e6f7420746f6b656e206f776e6560008201527f72206f7220617070726f76656400000000000000000000000000000000000000602082015250565b60006127b1602d83611dae565b91506127bc82612755565b604082019050919050565b600060208201905081810360008301526127e0816127a4565b9050919050565b7f4552433732313a20696e76616c696420746f6b656e2049440000000000000000600082015250565b600061281d601883611dae565b9150612828826127e7565b602082019050919050565b6000602082019050818103600083015261284c81612810565b9050919050565b7f4552433732313a2061646472657373207a65726f206973206e6f74206120766160008201527f6c6964206f776e65720000000000000000000000000000000000000000000000602082015250565b60006128af602983611dae565b91506128ba82612853565b604082019050919050565b600060208201905081810360008301526128de816128a2565b9050919050565b600081905092915050565b60008190508160005260206000209050919050565b60008154612912816123a7565b61291c81866128e5565b94506001821660008114612937576001811461294c5761297f565b60ff198316865281151582028601935061297f565b612955856128f0565b60005b8381101561297757815481890152600182019150602081019050612958565b838801955050505b50505092915050565b600061299382611da3565b61299d81856128e5565b93506129ad818560208601611dbf565b80840191505092915050565b7f2e6a736f6e000000000000000000000000000000000000000000000000000000600082015250565b60006129ef6005836128e5565b91506129fa826129b9565b600582019050919050565b6000612a118285612905565b9150612a1d8284612988565b9150612a28826129e2565b91508190509392505050565b7f756e72657665616c65642e6a736f6e0000000000000000000000000000000000600082015250565b6000612a6a600f836128e5565b9150612a7582612a34565b600f82019050919050565b6000612a8c8284612905565b9150612a9782612a5d565b915081905092915050565b7f52657665616c20706861736520636c6f73656400000000000000000000000000600082015250565b6000612ad8601383611dae565b9150612ae382612aa2565b602082019050919050565b60006020820190508181036000830152612b0781612acb565b9050919050565b60006020601f8301049050919050565b600082821b905092915050565b600060088302612b5b7fffffffffffffffffffffffffffffffffffffffffffffffffffffffffffffffff82612b1e565b612b658683612b1e565b95508019841693508086168417925050509392505050565b6000819050919050565b6000612ba2612b9d612b9884611e55565b612b7d565b611e55565b9050919050565b6000819050919050565b612bbc83612b87565b612bd0612bc882612ba9565b848454612b2b565b825550505050565b600090565b612be5612bd8565b612bf0818484612bb3565b505050565b5b81811015612c1457612c09600082612bdd565b600181019050612bf6565b5050565b601f821115612c5957612c2a816128f0565b612c3384612b0e565b81016020851015612c42578190505b612c56612c4e85612b0e565b830182612bf5565b50505b505050565b600082821c905092915050565b6000612c7c60001984600802612c5e565b1980831691505092915050565b6000612c958383612c6b565b9150826002028217905092915050565b612cae82611da3565b67ffffffffffffffff811115612cc757612cc66120a0565b5b612cd182546123a7565b612cdc828285612c18565b600060209050601f831160018114612d0f5760008415612cfd578287015190505b612d078582612c89565b865550612d6f565b601f198416612d1d866128f0565b60005b82811015612d4557848901518255600182019150602085019450602081019050612d20565b86831015612d625784890151612d5e601f891682612c6b565b8355505b6001600288020188555050505b505050505050565b7f4f776e61626c653a206e6577206f776e657220697320746865207a65726f206160008201527f6464726573730000000000000000000000000000000000000000000000000000602082015250565b6000612dd3602683611dae565b9150612dde82612d77565b604082019050919050565b60006020820190508181036000830152612e0281612dc6565b9050919050565b7f4552433732313a206d696e7420746f20746865207a65726f2061646472657373600082015250565b6000612e3f602083611dae565b9150612e4a82612e09565b602082019050919050565b60006020820190508181036000830152612e6e81612e32565b9050919050565b7f4552433732313a20746f6b656e20616c7265616479206d696e74656400000000600082015250565b6000612eab601c83611dae565b9150612eb682612e75565b602082019050919050565b60006020820190508181036000830152612eda81612e9e565b9050919050565b7f4552433732313a207472616e736665722066726f6d20696e636f72726563742060008201527f6f776e6572000000000000000000000000000000000000000000000000000000602082015250565b6000612f3d602583611dae565b9150612f4882612ee1565b604082019050919050565b60006020820190508181036000830152612f6c81612f30565b9050919050565b7f4552433732313a207472616e7366657220746f20746865207a65726f2061646460008201527f7265737300000000000000000000000000000000000000000000000000000000602082015250565b6000612fcf602483611dae565b9150612fda82612f73565b604082019050919050565b60006020820190508181036000830152612ffe81612fc2565b9050919050565b7f4f776e61626c653a2063616c6c6572206973206e6f7420746865206f776e6572600082015250565b600061303b602083611dae565b915061304682613005565b602082019050919050565b6000602082019050818103600083015261306a8161302e565b9050919050565b7f4552433732313a20617070726f766520746f2063616c6c657200000000000000600082015250565b60006130a7601983611dae565b91506130b282613071565b602082019050919050565b600060208201905081810360008301526130d68161309a565b9050919050565b7f4552433732313a207472616e7366657220746f206e6f6e20455243373231526560008201527f63656976657220696d706c656d656e7465720000000000000000000000000000602082015250565b6000613139603283611dae565b9150613144826130dd565b604082019050919050565b600060208201905081810360008301526131688161312c565b9050919050565b7f4e487b7100000000000000000000000000000000000000000000000000000000600052601260045260246000fd5b600081519050919050565b600082825260208201905092915050565b60006131c58261319e565b6131cf81856131a9565b93506131df818560208601611dbf565b6131e881611de9565b840191505092915050565b60006080820190506132086000830187611eea565b6132156020830186611eea565b6132226040830185612000565b818103606083015261323481846131ba565b905095945050505050565b60008151905061324e81611d14565b92915050565b60006020828403121561326a57613269611cde565b5b60006132788482850161323f565b9150509291505056fea26469706673582212200b48d18c7f66e93ff288275760c1935bf0bb0efd09fee22ce79b05fc75c68a5664736f6c63430008120033",
  "immutableReferences": {},
  "source": "// SPDX-License-Identifier: MIT\r\npragma solidity ^0.8.18;\r\n\r\nimport \"../../node_modules/@openzeppelin/contracts/token/ERC721/ERC721.sol\";\r\nimport \"../../node_modules/@openzeppelin/contracts/utils/Strings.sol\";\r\nimport \"../../node_modules/@openzeppelin//contracts/access/Ownable.sol\";\r\n\r\ncontract FirstCollection is ERC721, Ownable {\r\n\r\n    using Strings for uint256;\r\n\r\n    //State variables\r\n    string nonRevealURI;\r\n    string baseURI;\r\n    uint256 tokenToMint = 0;\r\n    uint256 deploymentTime;\r\n    uint256 mintPrice = 1 ether;\r\n    bool isRevealActive;\r\n\r\n    //Modifiers\r\n    modifier mintActive() {\r\n        require(deploymentTime + 3 days <= block.timestamp, \"Mint is disabled\");\r\n        _;\r\n    }\r\n\r\n    constructor(string memory newNonRevealURI) ERC721(\"First Collection\", \"1CO\")  { \r\n        nonRevealURI = newNonRevealURI;\r\n        deploymentTime = block.timestamp;\r\n    }\r\n\r\n    function mint() external payable mintActive { \r\n        require(tokenToMint < 5, \"All tokens minted\");\r\n        require(msg.value == mintPrice, \"Price is not correct\");\r\n\r\n        tokenToMint += 1;\r\n\r\n        _mint(msg.sender, tokenToMint);\r\n        (bool success, ) = payable(owner()).call{value: msg.value}(\"\"); //Pay the NFT and send the ETH to the owner\r\n        require(success, \"Payment fail\");\r\n    }\r\n\r\n    function revealPhase(string memory newBaseURI) external onlyOwner mintActive {\r\n\r\n        uint256 currentTime = block.timestamp;\r\n        //Reveal can be carried out during a week\r\n        require(deploymentTime + 1 weeks <= currentTime && //At least 1 week must pass to start the reveal\r\n               deploymentTime + 2 weeks >= currentTime, //A maximum of two weeks must be passed to reveal NFTs\r\n               \"Reveal phase closed\");\r\n        isRevealActive = true;\r\n        baseURI = newBaseURI;\r\n    }\r\n\r\n    function tokenURI(uint tokenId) public view override returns(string memory)  {\r\n        if(isRevealActive){\r\n            return string(abi.encodePacked(baseURI, tokenId.toString(),\".json\"));\r\n        } else {\r\n            return string(abi.encodePacked(nonRevealURI, \"unrevealed.json\"));\r\n        }\r\n    }\r\n}",
  "sourcePath": "D:\\Documentos\\Trabajos\\NFT_test_ERC721\\src\\contracts\\FirstCollection.sol",
  "compiler": {
    "name": "solc",
    "version": "0.8.18+commit.87f61d96.Emscripten.clang"
  },
  "schemaVersion": "3.4.8",
  "updatedAt": "2023-04-21T06:12:52.281Z",
  "networkType": "ethereum",
  "devdoc": {
    "events": {
      "Approval(address,address,uint256)": {
        "details": "Emitted when `owner` enables `approved` to manage the `tokenId` token."
      },
      "ApprovalForAll(address,address,bool)": {
        "details": "Emitted when `owner` enables or disables (`approved`) `operator` to manage all of its assets."
      },
      "Transfer(address,address,uint256)": {
        "details": "Emitted when `tokenId` token is transferred from `from` to `to`."
      }
    },
    "kind": "dev",
    "methods": {
      "approve(address,uint256)": {
        "details": "See {IERC721-approve}."
      },
      "balanceOf(address)": {
        "details": "See {IERC721-balanceOf}."
      },
      "getApproved(uint256)": {
        "details": "See {IERC721-getApproved}."
      },
      "isApprovedForAll(address,address)": {
        "details": "See {IERC721-isApprovedForAll}."
      },
      "name()": {
        "details": "See {IERC721Metadata-name}."
      },
      "owner()": {
        "details": "Returns the address of the current owner."
      },
      "ownerOf(uint256)": {
        "details": "See {IERC721-ownerOf}."
      },
      "renounceOwnership()": {
        "details": "Leaves the contract without owner. It will not be possible to call `onlyOwner` functions anymore. Can only be called by the current owner. NOTE: Renouncing ownership will leave the contract without an owner, thereby removing any functionality that is only available to the owner."
      },
      "safeTransferFrom(address,address,uint256)": {
        "details": "See {IERC721-safeTransferFrom}."
      },
      "safeTransferFrom(address,address,uint256,bytes)": {
        "details": "See {IERC721-safeTransferFrom}."
      },
      "setApprovalForAll(address,bool)": {
        "details": "See {IERC721-setApprovalForAll}."
      },
      "supportsInterface(bytes4)": {
        "details": "See {IERC165-supportsInterface}."
      },
      "symbol()": {
        "details": "See {IERC721Metadata-symbol}."
      },
      "tokenURI(uint256)": {
        "details": "See {IERC721Metadata-tokenURI}."
      },
      "transferFrom(address,address,uint256)": {
        "details": "See {IERC721-transferFrom}."
      },
      "transferOwnership(address)": {
        "details": "Transfers ownership of the contract to a new account (`newOwner`). Can only be called by the current owner."
      }
    },
    "version": 1
  },
  "userdoc": {
    "kind": "user",
    "methods": {},
    "version": 1
  }
}