{
  "contractName": "MyCollection",
  "abi": [
    {
      "inputs": [],
      "stateMutability": "nonpayable",
      "type": "constructor"
    },
    {
      "anonymous": false,
      "inputs": [
        {
          "indexed": true,
          "internalType": "address",
          "name": "owner",
          "type": "address"
        },
        {
          "indexed": true,
          "internalType": "address",
          "name": "approved",
          "type": "address"
        },
        {
          "indexed": true,
          "internalType": "uint256",
          "name": "tokenId",
          "type": "uint256"
        }
      ],
      "name": "Approval",
      "type": "event"
    },
    {
      "anonymous": false,
      "inputs": [
        {
          "indexed": true,
          "internalType": "address",
          "name": "owner",
          "type": "address"
        },
        {
          "indexed": true,
          "internalType": "address",
          "name": "operator",
          "type": "address"
        },
        {
          "indexed": false,
          "internalType": "bool",
          "name": "approved",
          "type": "bool"
        }
      ],
      "name": "ApprovalForAll",
      "type": "event"
    },
    {
      "anonymous": false,
      "inputs": [
        {
          "indexed": true,
          "internalType": "address",
          "name": "from",
          "type": "address"
        },
        {
          "indexed": true,
          "internalType": "address",
          "name": "to",
          "type": "address"
        },
        {
          "indexed": true,
          "internalType": "uint256",
          "name": "tokenId",
          "type": "uint256"
        }
      ],
      "name": "Transfer",
      "type": "event"
    },
    {
      "inputs": [
        {
          "internalType": "address",
          "name": "to",
          "type": "address"
        },
        {
          "internalType": "uint256",
          "name": "tokenId",
          "type": "uint256"
        }
      ],
      "name": "approve",
      "outputs": [],
      "stateMutability": "nonpayable",
      "type": "function"
    },
    {
      "inputs": [
        {
          "internalType": "address",
          "name": "owner",
          "type": "address"
        }
      ],
      "name": "balanceOf",
      "outputs": [
        {
          "internalType": "uint256",
          "name": "",
          "type": "uint256"
        }
      ],
      "stateMutability": "view",
      "type": "function",
      "constant": true
    },
    {
      "inputs": [
        {
          "internalType": "uint256",
          "name": "tokenId",
          "type": "uint256"
        }
      ],
      "name": "getApproved",
      "outputs": [
        {
          "internalType": "address",
          "name": "",
          "type": "address"
        }
      ],
      "stateMutability": "view",
      "type": "function",
      "constant": true
    },
    {
      "inputs": [
        {
          "internalType": "address",
          "name": "owner",
          "type": "address"
        },
        {
          "internalType": "address",
          "name": "operator",
          "type": "address"
        }
      ],
      "name": "isApprovedForAll",
      "outputs": [
        {
          "internalType": "bool",
          "name": "",
          "type": "bool"
        }
      ],
      "stateMutability": "view",
      "type": "function",
      "constant": true
    },
    {
      "inputs": [],
      "name": "name",
      "outputs": [
        {
          "internalType": "string",
          "name": "",
          "type": "string"
        }
      ],
      "stateMutability": "view",
      "type": "function",
      "constant": true
    },
    {
      "inputs": [
        {
          "internalType": "uint256",
          "name": "tokenId",
          "type": "uint256"
        }
      ],
      "name": "ownerOf",
      "outputs": [
        {
          "internalType": "address",
          "name": "",
          "type": "address"
        }
      ],
      "stateMutability": "view",
      "type": "function",
      "constant": true
    },
    {
      "inputs": [
        {
          "internalType": "address",
          "name": "from",
          "type": "address"
        },
        {
          "internalType": "address",
          "name": "to",
          "type": "address"
        },
        {
          "internalType": "uint256",
          "name": "tokenId",
          "type": "uint256"
        }
      ],
      "name": "safeTransferFrom",
      "outputs": [],
      "stateMutability": "nonpayable",
      "type": "function"
    },
    {
      "inputs": [
        {
          "internalType": "address",
          "name": "from",
          "type": "address"
        },
        {
          "internalType": "address",
          "name": "to",
          "type": "address"
        },
        {
          "internalType": "uint256",
          "name": "tokenId",
          "type": "uint256"
        },
        {
          "internalType": "bytes",
          "name": "_data",
          "type": "bytes"
        }
      ],
      "name": "safeTransferFrom",
      "outputs": [],
      "stateMutability": "nonpayable",
      "type": "function"
    },
    {
      "inputs": [
        {
          "internalType": "address",
          "name": "operator",
          "type": "address"
        },
        {
          "internalType": "bool",
          "name": "approved",
          "type": "bool"
        }
      ],
      "name": "setApprovalForAll",
      "outputs": [],
      "stateMutability": "nonpayable",
      "type": "function"
    },
    {
      "inputs": [
        {
          "internalType": "bytes4",
          "name": "interfaceId",
          "type": "bytes4"
        }
      ],
      "name": "supportsInterface",
      "outputs": [
        {
          "internalType": "bool",
          "name": "",
          "type": "bool"
        }
      ],
      "stateMutability": "view",
      "type": "function",
      "constant": true
    },
    {
      "inputs": [],
      "name": "symbol",
      "outputs": [
        {
          "internalType": "string",
          "name": "",
          "type": "string"
        }
      ],
      "stateMutability": "view",
      "type": "function",
      "constant": true
    },
    {
      "inputs": [
        {
          "internalType": "uint256",
          "name": "tokenId",
          "type": "uint256"
        }
      ],
      "name": "tokenURI",
      "outputs": [
        {
          "internalType": "string",
          "name": "",
          "type": "string"
        }
      ],
      "stateMutability": "view",
      "type": "function",
      "constant": true
    },
    {
      "inputs": [
        {
          "internalType": "address",
          "name": "from",
          "type": "address"
        },
        {
          "internalType": "address",
          "name": "to",
          "type": "address"
        },
        {
          "internalType": "uint256",
          "name": "tokenId",
          "type": "uint256"
        }
      ],
      "name": "transferFrom",
      "outputs": [],
      "stateMutability": "nonpayable",
      "type": "function"
    },
    {
      "inputs": [],
      "name": "mint",
      "outputs": [],
      "stateMutability": "nonpayable",
      "type": "function"
    },
    {
      "inputs": [
        {
          "internalType": "uint256",
          "name": "tokenId",
          "type": "uint256"
        }
      ],
      "name": "modifyURI",
      "outputs": [],
      "stateMutability": "nonpayable",
      "type": "function"
    }
  ],
  "bytecode": "0x60806040523480156200001157600080fd5b506040518060400160405280600e81526020017f54657374436f6c6c656374696f6e0000000000000000000000000000000000008152506040518060400160405280600381526020017f54434c0000000000000000000000000000000000000000000000000000000000815250816000908051906020019062000096929190620000b8565b508060019080519060200190620000af929190620000b8565b505050620001cd565b828054620000c69062000197565b90600052602060002090601f016020900481019282620000ea576000855562000136565b82601f106200010557805160ff191683800117855562000136565b8280016001018555821562000136579182015b828111156200013557825182559160200191906001019062000118565b5b50905062000145919062000149565b5090565b5b80821115620001645760008160009055506001016200014a565b5090565b7f4e487b7100000000000000000000000000000000000000000000000000000000600052602260045260246000fd5b60006002820490506001821680620001b057607f821691505b60208210811415620001c757620001c662000168565b5b50919050565b612c8280620001dd6000396000f3fe608060405234801561001057600080fd5b50600436106100f55760003560e01c80634b86ad6411610097578063a22cb46511610066578063a22cb46514610270578063b88d4fde1461028c578063c87b56dd146102a8578063e985e9c5146102d8576100f5565b80634b86ad64146101d65780636352211e146101f257806370a082311461022257806395d89b4114610252576100f5565b8063095ea7b3116100d3578063095ea7b3146101785780631249c58b1461019457806323b872dd1461019e57806342842e0e146101ba576100f5565b806301ffc9a7146100fa57806306fdde031461012a578063081812fc14610148575b600080fd5b610114600480360381019061010f919061193e565b610308565b6040516101219190611986565b60405180910390f35b6101326103ea565b60405161013f9190611a3a565b60405180910390f35b610162600480360381019061015d9190611a92565b61047c565b60405161016f9190611b00565b60405180910390f35b610192600480360381019061018d9190611b47565b610501565b005b61019c610619565b005b6101b860048036038101906101b39190611b87565b610626565b005b6101d460048036038101906101cf9190611b87565b610686565b005b6101f060048036038101906101eb9190611a92565b6106a6565b005b61020c60048036038101906102079190611a92565b610709565b6040516102199190611b00565b60405180910390f35b61023c60048036038101906102379190611bda565b6107bb565b6040516102499190611c16565b60405180910390f35b61025a610873565b6040516102679190611a3a565b60405180910390f35b61028a60048036038101906102859190611c5d565b610905565b005b6102a660048036038101906102a19190611dd2565b61091b565b005b6102c260048036038101906102bd9190611a92565b61097d565b6040516102cf9190611a3a565b60405180910390f35b6102f260048036038101906102ed9190611e55565b610acf565b6040516102ff9190611986565b60405180910390f35b60007f80ac58cd000000000000000000000000000000000000000000000000000000007bffffffffffffffffffffffffffffffffffffffffffffffffffffffff1916827bffffffffffffffffffffffffffffffffffffffffffffffffffffffff191614806103d357507f5b5e139f000000000000000000000000000000000000000000000000000000007bffffffffffffffffffffffffffffffffffffffffffffffffffffffff1916827bffffffffffffffffffffffffffffffffffffffffffffffffffffffff1916145b806103e357506103e282610b63565b5b9050919050565b6060600080546103f990611ec4565b80601f016020809104026020016040519081016040528092919081815260200182805461042590611ec4565b80156104725780601f1061044757610100808354040283529160200191610472565b820191906000526020600020905b81548152906001019060200180831161045557829003601f168201915b5050505050905090565b600061048782610bcd565b6104c6576040517f08c379a00000000000000000000000000000000000000000000000000000000081526004016104bd90611f68565b60405180910390fd5b6004600083815260200190815260200160002060009054906101000a900473ffffffffffffffffffffffffffffffffffffffff169050919050565b600061050c82610709565b90508073ffffffffffffffffffffffffffffffffffffffff168373ffffffffffffffffffffffffffffffffffffffff16141561057d576040517f08c379a000000000000000000000000000000000000000000000000000000000815260040161057490611ffa565b60405180910390fd5b8073ffffffffffffffffffffffffffffffffffffffff1661059c610c39565b73ffffffffffffffffffffffffffffffffffffffff1614806105cb57506105ca816105c5610c39565b610acf565b5b61060a576040517f08c379a00000000000000000000000000000000000000000000000000000000081526004016106019061208c565b60405180910390fd5b6106148383610c41565b505050565b610624336001610cfa565b565b610637610631610c39565b82610ec8565b610676576040517f08c379a000000000000000000000000000000000000000000000000000000000815260040161066d9061211e565b60405180910390fd5b610681838383610fa6565b505050565b6106a18383836040518060200160405280600081525061091b565b505050565b6106af81610bcd565b6106ee576040517f08c379a00000000000000000000000000000000000000000000000000000000081526004016106e5906121b0565b60405180910390fd5b60006106f982611202565b90506107058282611233565b5050565b6000806002600084815260200190815260200160002060009054906101000a900473ffffffffffffffffffffffffffffffffffffffff169050600073ffffffffffffffffffffffffffffffffffffffff168173ffffffffffffffffffffffffffffffffffffffff1614156107b2576040517f08c379a00000000000000000000000000000000000000000000000000000000081526004016107a990612242565b60405180910390fd5b80915050919050565b60008073ffffffffffffffffffffffffffffffffffffffff168273ffffffffffffffffffffffffffffffffffffffff16141561082c576040517f08c379a0000000000000000000000000000000000000000000000000000000008152600401610823906122d4565b60405180910390fd5b600360008373ffffffffffffffffffffffffffffffffffffffff1673ffffffffffffffffffffffffffffffffffffffff168152602001908152602001600020549050919050565b60606001805461088290611ec4565b80601f01602080910402602001604051908101604052809291908181526020018280546108ae90611ec4565b80156108fb5780601f106108d0576101008083540402835291602001916108fb565b820191906000526020600020905b8154815290600101906020018083116108de57829003601f168201915b5050505050905090565b610917610910610c39565b83836112a7565b5050565b61092c610926610c39565b83610ec8565b61096b576040517f08c379a00000000000000000000000000000000000000000000000000000000081526004016109629061211e565b60405180910390fd5b61097784848484611414565b50505050565b606061098882610bcd565b6109c7576040517f08c379a00000000000000000000000000000000000000000000000000000000081526004016109be90612366565b60405180910390fd5b60006006600084815260200190815260200160002080546109e790611ec4565b80601f0160208091040260200160405190810160405280929190818152602001828054610a1390611ec4565b8015610a605780601f10610a3557610100808354040283529160200191610a60565b820191906000526020600020905b815481529060010190602001808311610a4357829003601f168201915b505050505090506000610a71611470565b9050600081511415610a87578192505050610aca565b600082511115610abc578082604051602001610aa49291906123c2565b60405160208183030381529060405292505050610aca565b610ac584611487565b925050505b919050565b6000600560008473ffffffffffffffffffffffffffffffffffffffff1673ffffffffffffffffffffffffffffffffffffffff16815260200190815260200160002060008373ffffffffffffffffffffffffffffffffffffffff1673ffffffffffffffffffffffffffffffffffffffff16815260200190815260200160002060009054906101000a900460ff16905092915050565b60007f01ffc9a7000000000000000000000000000000000000000000000000000000007bffffffffffffffffffffffffffffffffffffffffffffffffffffffff1916827bffffffffffffffffffffffffffffffffffffffffffffffffffffffff1916149050919050565b60008073ffffffffffffffffffffffffffffffffffffffff166002600084815260200190815260200160002060009054906101000a900473ffffffffffffffffffffffffffffffffffffffff1673ffffffffffffffffffffffffffffffffffffffff1614159050919050565b600033905090565b816004600083815260200190815260200160002060006101000a81548173ffffffffffffffffffffffffffffffffffffffff021916908373ffffffffffffffffffffffffffffffffffffffff160217905550808273ffffffffffffffffffffffffffffffffffffffff16610cb483610709565b73ffffffffffffffffffffffffffffffffffffffff167f8c5be1e5ebec7d5bd14f71427d1e84f3dd0314c0f7b2291e5b200ac8c7c3b92560405160405180910390a45050565b600073ffffffffffffffffffffffffffffffffffffffff168273ffffffffffffffffffffffffffffffffffffffff161415610d6a576040517f08c379a0000000000000000000000000000000000000000000000000000000008152600401610d6190612432565b60405180910390fd5b610d7381610bcd565b15610db3576040517f08c379a0000000000000000000000000000000000000000000000000000000008152600401610daa9061249e565b60405180910390fd5b610dbf6000838361152e565b6001600360008473ffffffffffffffffffffffffffffffffffffffff1673ffffffffffffffffffffffffffffffffffffffff1681526020019081526020016000206000828254610e0f91906124ed565b92505081905550816002600083815260200190815260200160002060006101000a81548173ffffffffffffffffffffffffffffffffffffffff021916908373ffffffffffffffffffffffffffffffffffffffff160217905550808273ffffffffffffffffffffffffffffffffffffffff16600073ffffffffffffffffffffffffffffffffffffffff167fddf252ad1be2c89b69c2b068fc378daa952ba7f163c4a11628f55a4df523b3ef60405160405180910390a45050565b6000610ed382610bcd565b610f12576040517f08c379a0000000000000000000000000000000000000000000000000000000008152600401610f09906125b5565b60405180910390fd5b6000610f1d83610709565b90508073ffffffffffffffffffffffffffffffffffffffff168473ffffffffffffffffffffffffffffffffffffffff161480610f8c57508373ffffffffffffffffffffffffffffffffffffffff16610f748461047c565b73ffffffffffffffffffffffffffffffffffffffff16145b80610f9d5750610f9c8185610acf565b5b91505092915050565b8273ffffffffffffffffffffffffffffffffffffffff16610fc682610709565b73ffffffffffffffffffffffffffffffffffffffff161461101c576040517f08c379a000000000000000000000000000000000000000000000000000000000815260040161101390612647565b60405180910390fd5b600073ffffffffffffffffffffffffffffffffffffffff168273ffffffffffffffffffffffffffffffffffffffff16141561108c576040517f08c379a0000000000000000000000000000000000000000000000000000000008152600401611083906126d9565b60405180910390fd5b61109783838361152e565b6110a2600082610c41565b6001600360008573ffffffffffffffffffffffffffffffffffffffff1673ffffffffffffffffffffffffffffffffffffffff16815260200190815260200160002060008282546110f291906126f9565b925050819055506001600360008473ffffffffffffffffffffffffffffffffffffffff1673ffffffffffffffffffffffffffffffffffffffff168152602001908152602001600020600082825461114991906124ed565b92505081905550816002600083815260200190815260200160002060006101000a81548173ffffffffffffffffffffffffffffffffffffffff021916908373ffffffffffffffffffffffffffffffffffffffff160217905550808273ffffffffffffffffffffffffffffffffffffffff168473ffffffffffffffffffffffffffffffffffffffff167fddf252ad1be2c89b69c2b068fc378daa952ba7f163c4a11628f55a4df523b3ef60405160405180910390a4505050565b606061120d82611533565b60405160200161121d9190612811565b6040516020818303038152906040529050919050565b61123c82610bcd565b61127b576040517f08c379a0000000000000000000000000000000000000000000000000000000008152600401611272906128b0565b60405180910390fd5b806006600084815260200190815260200160002090805190602001906112a292919061182f565b505050565b8173ffffffffffffffffffffffffffffffffffffffff168373ffffffffffffffffffffffffffffffffffffffff161415611316576040517f08c379a000000000000000000000000000000000000000000000000000000000815260040161130d9061291c565b60405180910390fd5b80600560008573ffffffffffffffffffffffffffffffffffffffff1673ffffffffffffffffffffffffffffffffffffffff16815260200190815260200160002060008473ffffffffffffffffffffffffffffffffffffffff1673ffffffffffffffffffffffffffffffffffffffff16815260200190815260200160002060006101000a81548160ff0219169083151502179055508173ffffffffffffffffffffffffffffffffffffffff168373ffffffffffffffffffffffffffffffffffffffff167f17307eab39ab6107e8899845ad3d59bd9653f200f220920489ca2b5937696c31836040516114079190611986565b60405180910390a3505050565b61141f848484610fa6565b61142b84848484611694565b61146a576040517f08c379a0000000000000000000000000000000000000000000000000000000008152600401611461906129ae565b60405180910390fd5b50505050565b606060405180602001604052806000815250905090565b606061149282610bcd565b6114d1576040517f08c379a00000000000000000000000000000000000000000000000000000000081526004016114c890612a40565b60405180910390fd5b60006114db611470565b905060008151116114fb5760405180602001604052806000815250611526565b8061150584611533565b6040516020016115169291906123c2565b6040516020818303038152906040525b915050919050565b505050565b6060600082141561157b576040518060400160405280600181526020017f3000000000000000000000000000000000000000000000000000000000000000815250905061168f565b600082905060005b600082146115ad57808061159690612a60565b915050600a826115a69190612ad8565b9150611583565b60008167ffffffffffffffff8111156115c9576115c8611ca7565b5b6040519080825280601f01601f1916602001820160405280156115fb5781602001600182028036833780820191505090505b5090505b600085146116885760018261161491906126f9565b9150600a856116239190612b09565b603061162f91906124ed565b60f81b81838151811061164557611644612b3a565b5b60200101907effffffffffffffffffffffffffffffffffffffffffffffffffffffffffffff1916908160001a905350600a856116819190612ad8565b94506115ff565b8093505050505b919050565b60006116b58473ffffffffffffffffffffffffffffffffffffffff1661181c565b1561180f578373ffffffffffffffffffffffffffffffffffffffff1663150b7a026116de610c39565b8786866040518563ffffffff1660e01b81526004016117009493929190612bbe565b6020604051808303816000875af192505050801561173c57506040513d601f19601f820116820180604052508101906117399190612c1f565b60015b6117bf573d806000811461176c576040519150601f19603f3d011682016040523d82523d6000602084013e611771565b606091505b506000815114156117b7576040517f08c379a00000000000000000000000000000000000000000000000000000000081526004016117ae906129ae565b60405180910390fd5b805181602001fd5b63150b7a0260e01b7bffffffffffffffffffffffffffffffffffffffffffffffffffffffff1916817bffffffffffffffffffffffffffffffffffffffffffffffffffffffff191614915050611814565b600190505b949350505050565b600080823b905060008111915050919050565b82805461183b90611ec4565b90600052602060002090601f01602090048101928261185d57600085556118a4565b82601f1061187657805160ff19168380011785556118a4565b828001600101855582156118a4579182015b828111156118a3578251825591602001919060010190611888565b5b5090506118b191906118b5565b5090565b5b808211156118ce5760008160009055506001016118b6565b5090565b6000604051905090565b600080fd5b600080fd5b60007fffffffff0000000000000000000000000000000000000000000000000000000082169050919050565b61191b816118e6565b811461192657600080fd5b50565b60008135905061193881611912565b92915050565b600060208284031215611954576119536118dc565b5b600061196284828501611929565b91505092915050565b60008115159050919050565b6119808161196b565b82525050565b600060208201905061199b6000830184611977565b92915050565b600081519050919050565b600082825260208201905092915050565b60005b838110156119db5780820151818401526020810190506119c0565b838111156119ea576000848401525b50505050565b6000601f19601f8301169050919050565b6000611a0c826119a1565b611a1681856119ac565b9350611a268185602086016119bd565b611a2f816119f0565b840191505092915050565b60006020820190508181036000830152611a548184611a01565b905092915050565b6000819050919050565b611a6f81611a5c565b8114611a7a57600080fd5b50565b600081359050611a8c81611a66565b92915050565b600060208284031215611aa857611aa76118dc565b5b6000611ab684828501611a7d565b91505092915050565b600073ffffffffffffffffffffffffffffffffffffffff82169050919050565b6000611aea82611abf565b9050919050565b611afa81611adf565b82525050565b6000602082019050611b156000830184611af1565b92915050565b611b2481611adf565b8114611b2f57600080fd5b50565b600081359050611b4181611b1b565b92915050565b60008060408385031215611b5e57611b5d6118dc565b5b6000611b6c85828601611b32565b9250506020611b7d85828601611a7d565b9150509250929050565b600080600060608486031215611ba057611b9f6118dc565b5b6000611bae86828701611b32565b9350506020611bbf86828701611b32565b9250506040611bd086828701611a7d565b9150509250925092565b600060208284031215611bf057611bef6118dc565b5b6000611bfe84828501611b32565b91505092915050565b611c1081611a5c565b82525050565b6000602082019050611c2b6000830184611c07565b92915050565b611c3a8161196b565b8114611c4557600080fd5b50565b600081359050611c5781611c31565b92915050565b60008060408385031215611c7457611c736118dc565b5b6000611c8285828601611b32565b9250506020611c9385828601611c48565b9150509250929050565b600080fd5b600080fd5b7f4e487b7100000000000000000000000000000000000000000000000000000000600052604160045260246000fd5b611cdf826119f0565b810181811067ffffffffffffffff82111715611cfe57611cfd611ca7565b5b80604052505050565b6000611d116118d2565b9050611d1d8282611cd6565b919050565b600067ffffffffffffffff821115611d3d57611d3c611ca7565b5b611d46826119f0565b9050602081019050919050565b82818337600083830152505050565b6000611d75611d7084611d22565b611d07565b905082815260208101848484011115611d9157611d90611ca2565b5b611d9c848285611d53565b509392505050565b600082601f830112611db957611db8611c9d565b5b8135611dc9848260208601611d62565b91505092915050565b60008060008060808587031215611dec57611deb6118dc565b5b6000611dfa87828801611b32565b9450506020611e0b87828801611b32565b9350506040611e1c87828801611a7d565b925050606085013567ffffffffffffffff811115611e3d57611e3c6118e1565b5b611e4987828801611da4565b91505092959194509250565b60008060408385031215611e6c57611e6b6118dc565b5b6000611e7a85828601611b32565b9250506020611e8b85828601611b32565b9150509250929050565b7f4e487b7100000000000000000000000000000000000000000000000000000000600052602260045260246000fd5b60006002820490506001821680611edc57607f821691505b60208210811415611ef057611eef611e95565b5b50919050565b7f4552433732313a20617070726f76656420717565727920666f72206e6f6e657860008201527f697374656e7420746f6b656e0000000000000000000000000000000000000000602082015250565b6000611f52602c836119ac565b9150611f5d82611ef6565b604082019050919050565b60006020820190508181036000830152611f8181611f45565b9050919050565b7f4552433732313a20617070726f76616c20746f2063757272656e74206f776e6560008201527f7200000000000000000000000000000000000000000000000000000000000000602082015250565b6000611fe46021836119ac565b9150611fef82611f88565b604082019050919050565b6000602082019050818103600083015261201381611fd7565b9050919050565b7f4552433732313a20617070726f76652063616c6c6572206973206e6f74206f7760008201527f6e6572206e6f7220617070726f76656420666f7220616c6c0000000000000000602082015250565b60006120766038836119ac565b91506120818261201a565b604082019050919050565b600060208201905081810360008301526120a581612069565b9050919050565b7f4552433732313a207472616e736665722063616c6c6572206973206e6f74206f60008201527f776e6572206e6f7220617070726f766564000000000000000000000000000000602082015250565b60006121086031836119ac565b9150612113826120ac565b604082019050919050565b60006020820190508181036000830152612137816120fb565b9050919050565b7f54686520746f6b656e49442073656c656374656420646f6573206e6f7420657860008201527f6973747300000000000000000000000000000000000000000000000000000000602082015250565b600061219a6024836119ac565b91506121a58261213e565b604082019050919050565b600060208201905081810360008301526121c98161218d565b9050919050565b7f4552433732313a206f776e657220717565727920666f72206e6f6e657869737460008201527f656e7420746f6b656e0000000000000000000000000000000000000000000000602082015250565b600061222c6029836119ac565b9150612237826121d0565b604082019050919050565b6000602082019050818103600083015261225b8161221f565b9050919050565b7f4552433732313a2062616c616e636520717565727920666f7220746865207a6560008201527f726f206164647265737300000000000000000000000000000000000000000000602082015250565b60006122be602a836119ac565b91506122c982612262565b604082019050919050565b600060208201905081810360008301526122ed816122b1565b9050919050565b7f45524337323155524953746f726167653a2055524920717565727920666f722060008201527f6e6f6e6578697374656e7420746f6b656e000000000000000000000000000000602082015250565b60006123506031836119ac565b915061235b826122f4565b604082019050919050565b6000602082019050818103600083015261237f81612343565b9050919050565b600081905092915050565b600061239c826119a1565b6123a68185612386565b93506123b68185602086016119bd565b80840191505092915050565b60006123ce8285612391565b91506123da8284612391565b91508190509392505050565b7f4552433732313a206d696e7420746f20746865207a65726f2061646472657373600082015250565b600061241c6020836119ac565b9150612427826123e6565b602082019050919050565b6000602082019050818103600083015261244b8161240f565b9050919050565b7f4552433732313a20746f6b656e20616c7265616479206d696e74656400000000600082015250565b6000612488601c836119ac565b915061249382612452565b602082019050919050565b600060208201905081810360008301526124b78161247b565b9050919050565b7f4e487b7100000000000000000000000000000000000000000000000000000000600052601160045260246000fd5b60006124f882611a5c565b915061250383611a5c565b9250827fffffffffffffffffffffffffffffffffffffffffffffffffffffffffffffffff03821115612538576125376124be565b5b828201905092915050565b7f4552433732313a206f70657261746f7220717565727920666f72206e6f6e657860008201527f697374656e7420746f6b656e0000000000000000000000000000000000000000602082015250565b600061259f602c836119ac565b91506125aa82612543565b604082019050919050565b600060208201905081810360008301526125ce81612592565b9050919050565b7f4552433732313a207472616e73666572206f6620746f6b656e2074686174206960008201527f73206e6f74206f776e0000000000000000000000000000000000000000000000602082015250565b60006126316029836119ac565b915061263c826125d5565b604082019050919050565b6000602082019050818103600083015261266081612624565b9050919050565b7f4552433732313a207472616e7366657220746f20746865207a65726f2061646460008201527f7265737300000000000000000000000000000000000000000000000000000000602082015250565b60006126c36024836119ac565b91506126ce82612667565b604082019050919050565b600060208201905081810360008301526126f2816126b6565b9050919050565b600061270482611a5c565b915061270f83611a5c565b925082821015612722576127216124be565b5b828203905092915050565b7f68747470733a2f2f676174657761792e70696e6174612e636c6f75642f69706660008201527f732f516d61664c5951773765446f56575351474c46387470777064523569565660208201527f585157727651676f70507956794337762f000000000000000000000000000000604082015250565b60006127af605183612386565b91506127ba8261272d565b605182019050919050565b7f2e6a736f6e000000000000000000000000000000000000000000000000000000600082015250565b60006127fb600583612386565b9150612806826127c5565b600582019050919050565b600061281c826127a2565b91506128288284612391565b9150612833826127ee565b915081905092915050565b7f45524337323155524953746f726167653a2055524920736574206f66206e6f6e60008201527f6578697374656e7420746f6b656e000000000000000000000000000000000000602082015250565b600061289a602e836119ac565b91506128a58261283e565b604082019050919050565b600060208201905081810360008301526128c98161288d565b9050919050565b7f4552433732313a20617070726f766520746f2063616c6c657200000000000000600082015250565b60006129066019836119ac565b9150612911826128d0565b602082019050919050565b60006020820190508181036000830152612935816128f9565b9050919050565b7f4552433732313a207472616e7366657220746f206e6f6e20455243373231526560008201527f63656976657220696d706c656d656e7465720000000000000000000000000000602082015250565b60006129986032836119ac565b91506129a38261293c565b604082019050919050565b600060208201905081810360008301526129c78161298b565b9050919050565b7f4552433732314d657461646174613a2055524920717565727920666f72206e6f60008201527f6e6578697374656e7420746f6b656e0000000000000000000000000000000000602082015250565b6000612a2a602f836119ac565b9150612a35826129ce565b604082019050919050565b60006020820190508181036000830152612a5981612a1d565b9050919050565b6000612a6b82611a5c565b91507fffffffffffffffffffffffffffffffffffffffffffffffffffffffffffffffff821415612a9e57612a9d6124be565b5b600182019050919050565b7f4e487b7100000000000000000000000000000000000000000000000000000000600052601260045260246000fd5b6000612ae382611a5c565b9150612aee83611a5c565b925082612afe57612afd612aa9565b5b828204905092915050565b6000612b1482611a5c565b9150612b1f83611a5c565b925082612b2f57612b2e612aa9565b5b828206905092915050565b7f4e487b7100000000000000000000000000000000000000000000000000000000600052603260045260246000fd5b600081519050919050565b600082825260208201905092915050565b6000612b9082612b69565b612b9a8185612b74565b9350612baa8185602086016119bd565b612bb3816119f0565b840191505092915050565b6000608082019050612bd36000830187611af1565b612be06020830186611af1565b612bed6040830185611c07565b8181036060830152612bff8184612b85565b905095945050505050565b600081519050612c1981611912565b92915050565b600060208284031215612c3557612c346118dc565b5b6000612c4384828501612c0a565b9150509291505056fea26469706673582212209bd267ab462f6bb77903d872d59585e5835bd5ea9065de4fc7f99393e543791164736f6c634300080a0033",
  "immutableReferences": {},
  "source": "// SPDX-License-Identifier: MIT\r\npragma solidity ^0.8.0;\r\n\r\nimport \"@openzeppelin/contracts/token/ERC721/ERC721.sol\"; \r\nimport \"@openzeppelin/contracts/token/ERC721/extensions/ERC721URIStorage.sol\";\r\n\r\ncontract MyCollection is ERC721URIStorage {\r\n   \r\n    constructor() ERC721(\"TestCollection\", \"TCL\")  { }\r\n\r\n    function mint() public { //Make it only executable by the owner\r\n        _mint(msg.sender, 1);\r\n        //_setTokenURI(tokenId, \"https://gateway.pinata.cloud/ipfs/QmZZHgbCrSHdh8TVyTK9KaHigPDtkDuW2MngdVEqmP7XdJ\");\r\n    }\r\n\r\n    function modifyURI(uint tokenId) public {\r\n       require(_exists(tokenId), \"The tokenID selected does not exists\");\r\n       string memory tokenUri = getURI(tokenId);\r\n        _setTokenURI(tokenId, tokenUri);\r\n    }\r\n\r\n    function getURI(uint tokenId) private pure returns(string memory)  {\r\n        return string(abi.encodePacked(\"https://gateway.pinata.cloud/ipfs/QmafLYQw7eDoVWSQGLF8tpwpdR5iVVXQWrvQgopPyVyC7v/\",Strings.toString(tokenId),\".json\"));\r\n    }\r\n\r\n}",
  "sourcePath": "D:\\Documentos\\Trabajos\\NFT_test_ERC721\\src\\contracts\\MyCollection.sol",
  "compiler": {
    "name": "solc",
    "version": "0.8.10+commit.fc410830.Emscripten.clang"
  },
  "schemaVersion": "3.4.7",
  "updatedAt": "2022-06-29T07:46:28.708Z",
  "networkType": "ethereum",
  "devdoc": {
    "kind": "dev",
    "methods": {
      "approve(address,uint256)": {
        "details": "See {IERC721-approve}."
      },
      "balanceOf(address)": {
        "details": "See {IERC721-balanceOf}."
      },
      "getApproved(uint256)": {
        "details": "See {IERC721-getApproved}."
      },
      "isApprovedForAll(address,address)": {
        "details": "See {IERC721-isApprovedForAll}."
      },
      "name()": {
        "details": "See {IERC721Metadata-name}."
      },
      "ownerOf(uint256)": {
        "details": "See {IERC721-ownerOf}."
      },
      "safeTransferFrom(address,address,uint256)": {
        "details": "See {IERC721-safeTransferFrom}."
      },
      "safeTransferFrom(address,address,uint256,bytes)": {
        "details": "See {IERC721-safeTransferFrom}."
      },
      "setApprovalForAll(address,bool)": {
        "details": "See {IERC721-setApprovalForAll}."
      },
      "supportsInterface(bytes4)": {
        "details": "See {IERC165-supportsInterface}."
      },
      "symbol()": {
        "details": "See {IERC721Metadata-symbol}."
      },
      "tokenURI(uint256)": {
        "details": "See {IERC721Metadata-tokenURI}."
      },
      "transferFrom(address,address,uint256)": {
        "details": "See {IERC721-transferFrom}."
      }
    },
    "version": 1
  },
  "userdoc": {
    "kind": "user",
    "methods": {},
    "version": 1
  }
}