{
  "contractName": "SecondCollection",
  "abi": [
    {
      "inputs": [
        {
          "internalType": "address",
          "name": "firstCollectionAddress",
          "type": "address"
        }
      ],
      "stateMutability": "nonpayable",
      "type": "constructor"
    },
    {
      "anonymous": false,
      "inputs": [
        {
          "indexed": true,
          "internalType": "address",
          "name": "owner",
          "type": "address"
        },
        {
          "indexed": true,
          "internalType": "address",
          "name": "approved",
          "type": "address"
        },
        {
          "indexed": true,
          "internalType": "uint256",
          "name": "tokenId",
          "type": "uint256"
        }
      ],
      "name": "Approval",
      "type": "event"
    },
    {
      "anonymous": false,
      "inputs": [
        {
          "indexed": true,
          "internalType": "address",
          "name": "owner",
          "type": "address"
        },
        {
          "indexed": true,
          "internalType": "address",
          "name": "operator",
          "type": "address"
        },
        {
          "indexed": false,
          "internalType": "bool",
          "name": "approved",
          "type": "bool"
        }
      ],
      "name": "ApprovalForAll",
      "type": "event"
    },
    {
      "anonymous": false,
      "inputs": [
        {
          "indexed": true,
          "internalType": "address",
          "name": "previousOwner",
          "type": "address"
        },
        {
          "indexed": true,
          "internalType": "address",
          "name": "newOwner",
          "type": "address"
        }
      ],
      "name": "OwnershipTransferred",
      "type": "event"
    },
    {
      "anonymous": false,
      "inputs": [
        {
          "indexed": true,
          "internalType": "address",
          "name": "from",
          "type": "address"
        },
        {
          "indexed": true,
          "internalType": "address",
          "name": "to",
          "type": "address"
        },
        {
          "indexed": true,
          "internalType": "uint256",
          "name": "tokenId",
          "type": "uint256"
        }
      ],
      "name": "Transfer",
      "type": "event"
    },
    {
      "inputs": [
        {
          "internalType": "address",
          "name": "to",
          "type": "address"
        },
        {
          "internalType": "uint256",
          "name": "tokenId",
          "type": "uint256"
        }
      ],
      "name": "approve",
      "outputs": [],
      "stateMutability": "nonpayable",
      "type": "function"
    },
    {
      "inputs": [
        {
          "internalType": "address",
          "name": "owner",
          "type": "address"
        }
      ],
      "name": "balanceOf",
      "outputs": [
        {
          "internalType": "uint256",
          "name": "",
          "type": "uint256"
        }
      ],
      "stateMutability": "view",
      "type": "function"
    },
    {
      "inputs": [
        {
          "internalType": "uint256",
          "name": "tokenId",
          "type": "uint256"
        }
      ],
      "name": "getApproved",
      "outputs": [
        {
          "internalType": "address",
          "name": "",
          "type": "address"
        }
      ],
      "stateMutability": "view",
      "type": "function"
    },
    {
      "inputs": [
        {
          "internalType": "address",
          "name": "owner",
          "type": "address"
        },
        {
          "internalType": "address",
          "name": "operator",
          "type": "address"
        }
      ],
      "name": "isApprovedForAll",
      "outputs": [
        {
          "internalType": "bool",
          "name": "",
          "type": "bool"
        }
      ],
      "stateMutability": "view",
      "type": "function"
    },
    {
      "inputs": [],
      "name": "name",
      "outputs": [
        {
          "internalType": "string",
          "name": "",
          "type": "string"
        }
      ],
      "stateMutability": "view",
      "type": "function"
    },
    {
      "inputs": [],
      "name": "owner",
      "outputs": [
        {
          "internalType": "address",
          "name": "",
          "type": "address"
        }
      ],
      "stateMutability": "view",
      "type": "function"
    },
    {
      "inputs": [
        {
          "internalType": "uint256",
          "name": "tokenId",
          "type": "uint256"
        }
      ],
      "name": "ownerOf",
      "outputs": [
        {
          "internalType": "address",
          "name": "",
          "type": "address"
        }
      ],
      "stateMutability": "view",
      "type": "function"
    },
    {
      "inputs": [],
      "name": "renounceOwnership",
      "outputs": [],
      "stateMutability": "nonpayable",
      "type": "function"
    },
    {
      "inputs": [
        {
          "internalType": "address",
          "name": "from",
          "type": "address"
        },
        {
          "internalType": "address",
          "name": "to",
          "type": "address"
        },
        {
          "internalType": "uint256",
          "name": "tokenId",
          "type": "uint256"
        }
      ],
      "name": "safeTransferFrom",
      "outputs": [],
      "stateMutability": "nonpayable",
      "type": "function"
    },
    {
      "inputs": [
        {
          "internalType": "address",
          "name": "from",
          "type": "address"
        },
        {
          "internalType": "address",
          "name": "to",
          "type": "address"
        },
        {
          "internalType": "uint256",
          "name": "tokenId",
          "type": "uint256"
        },
        {
          "internalType": "bytes",
          "name": "data",
          "type": "bytes"
        }
      ],
      "name": "safeTransferFrom",
      "outputs": [],
      "stateMutability": "nonpayable",
      "type": "function"
    },
    {
      "inputs": [
        {
          "internalType": "address",
          "name": "operator",
          "type": "address"
        },
        {
          "internalType": "bool",
          "name": "approved",
          "type": "bool"
        }
      ],
      "name": "setApprovalForAll",
      "outputs": [],
      "stateMutability": "nonpayable",
      "type": "function"
    },
    {
      "inputs": [
        {
          "internalType": "bytes4",
          "name": "interfaceId",
          "type": "bytes4"
        }
      ],
      "name": "supportsInterface",
      "outputs": [
        {
          "internalType": "bool",
          "name": "",
          "type": "bool"
        }
      ],
      "stateMutability": "view",
      "type": "function"
    },
    {
      "inputs": [],
      "name": "symbol",
      "outputs": [
        {
          "internalType": "string",
          "name": "",
          "type": "string"
        }
      ],
      "stateMutability": "view",
      "type": "function"
    },
    {
      "inputs": [
        {
          "internalType": "address",
          "name": "from",
          "type": "address"
        },
        {
          "internalType": "address",
          "name": "to",
          "type": "address"
        },
        {
          "internalType": "uint256",
          "name": "tokenId",
          "type": "uint256"
        }
      ],
      "name": "transferFrom",
      "outputs": [],
      "stateMutability": "nonpayable",
      "type": "function"
    },
    {
      "inputs": [
        {
          "internalType": "address",
          "name": "newOwner",
          "type": "address"
        }
      ],
      "name": "transferOwnership",
      "outputs": [],
      "stateMutability": "nonpayable",
      "type": "function"
    },
    {
      "inputs": [],
      "name": "mint",
      "outputs": [],
      "stateMutability": "payable",
      "type": "function"
    },
    {
      "inputs": [
        {
          "internalType": "uint256",
          "name": "tokenNum",
          "type": "uint256"
        }
      ],
      "name": "tokenURI",
      "outputs": [
        {
          "internalType": "string",
          "name": "",
          "type": "string"
        }
      ],
      "stateMutability": "pure",
      "type": "function"
    }
  ],
  "bytecode": "0x60806040526000600960006101000a81548161ffff021916908361ffff1602179055503480156200002f57600080fd5b50604051620035cb380380620035cb83398181016040528101906200005591906200028e565b6040518060400160405280601181526020017f5365636f6e6420436f6c6c656374696f6e0000000000000000000000000000008152506040518060400160405280600381526020017f32434f00000000000000000000000000000000000000000000000000000000008152508160009081620000d291906200053a565b508060019081620000e491906200053a565b50505062000107620000fb6200015660201b60201c565b6200015e60201b60201c565b80600760006101000a81548173ffffffffffffffffffffffffffffffffffffffff021916908373ffffffffffffffffffffffffffffffffffffffff160217905550426008819055505062000621565b600033905090565b6000600660009054906101000a900473ffffffffffffffffffffffffffffffffffffffff16905081600660006101000a81548173ffffffffffffffffffffffffffffffffffffffff021916908373ffffffffffffffffffffffffffffffffffffffff1602179055508173ffffffffffffffffffffffffffffffffffffffff168173ffffffffffffffffffffffffffffffffffffffff167f8be0079c531659141344cd1fd0a4f28419497f9722a3daafe3b4186f6b6457e060405160405180910390a35050565b600080fd5b600073ffffffffffffffffffffffffffffffffffffffff82169050919050565b6000620002568262000229565b9050919050565b620002688162000249565b81146200027457600080fd5b50565b60008151905062000288816200025d565b92915050565b600060208284031215620002a757620002a662000224565b5b6000620002b78482850162000277565b91505092915050565b600081519050919050565b7f4e487b7100000000000000000000000000000000000000000000000000000000600052604160045260246000fd5b7f4e487b7100000000000000000000000000000000000000000000000000000000600052602260045260246000fd5b600060028204905060018216806200034257607f821691505b602082108103620003585762000357620002fa565b5b50919050565b60008190508160005260206000209050919050565b60006020601f8301049050919050565b600082821b905092915050565b600060088302620003c27fffffffffffffffffffffffffffffffffffffffffffffffffffffffffffffffff8262000383565b620003ce868362000383565b95508019841693508086168417925050509392505050565b6000819050919050565b6000819050919050565b60006200041b620004156200040f84620003e6565b620003f0565b620003e6565b9050919050565b6000819050919050565b6200043783620003fa565b6200044f620004468262000422565b84845462000390565b825550505050565b600090565b6200046662000457565b620004738184846200042c565b505050565b5b818110156200049b576200048f6000826200045c565b60018101905062000479565b5050565b601f821115620004ea57620004b4816200035e565b620004bf8462000373565b81016020851015620004cf578190505b620004e7620004de8562000373565b83018262000478565b50505b505050565b600082821c905092915050565b60006200050f60001984600802620004ef565b1980831691505092915050565b60006200052a8383620004fc565b9150826002028217905092915050565b6200054582620002c0565b67ffffffffffffffff811115620005615762000560620002cb565b5b6200056d825462000329565b6200057a8282856200049f565b600060209050601f831160018114620005b257600084156200059d578287015190505b620005a985826200051c565b86555062000619565b601f198416620005c2866200035e565b60005b82811015620005ec57848901518255600182019150602085019450602081019050620005c5565b868310156200060c578489015162000608601f891682620004fc565b8355505b6001600288020188555050505b505050505050565b612f9a80620006316000396000f3fe6080604052600436106100fe5760003560e01c806370a0823111610095578063a22cb46511610064578063a22cb46514610314578063b88d4fde1461033d578063c87b56dd14610366578063e985e9c5146103a3578063f2fde38b146103e0576100fe565b806370a082311461026a578063715018a6146102a75780638da5cb5b146102be57806395d89b41146102e9576100fe565b80631249c58b116100d15780631249c58b146101d157806323b872dd146101db57806342842e0e146102045780636352211e1461022d576100fe565b806301ffc9a71461010357806306fdde0314610140578063081812fc1461016b578063095ea7b3146101a8575b600080fd5b34801561010f57600080fd5b5061012a60048036038101906101259190611d7f565b610409565b6040516101379190611dc7565b60405180910390f35b34801561014c57600080fd5b506101556104eb565b6040516101629190611e72565b60405180910390f35b34801561017757600080fd5b50610192600480360381019061018d9190611eca565b61057d565b60405161019f9190611f38565b60405180910390f35b3480156101b457600080fd5b506101cf60048036038101906101ca9190611f7f565b6105c3565b005b6101d96106da565b005b3480156101e757600080fd5b5061020260048036038101906101fd9190611fbf565b610a2a565b005b34801561021057600080fd5b5061022b60048036038101906102269190611fbf565b610a8a565b005b34801561023957600080fd5b50610254600480360381019061024f9190611eca565b610aaa565b6040516102619190611f38565b60405180910390f35b34801561027657600080fd5b50610291600480360381019061028c9190612012565b610b30565b60405161029e919061204e565b60405180910390f35b3480156102b357600080fd5b506102bc610be7565b005b3480156102ca57600080fd5b506102d3610bfb565b6040516102e09190611f38565b60405180910390f35b3480156102f557600080fd5b506102fe610c25565b60405161030b9190611e72565b60405180910390f35b34801561032057600080fd5b5061033b60048036038101906103369190612095565b610cb7565b005b34801561034957600080fd5b50610364600480360381019061035f919061220a565b610ccd565b005b34801561037257600080fd5b5061038d60048036038101906103889190611eca565b610d2f565b60405161039a9190611e72565b60405180910390f35b3480156103af57600080fd5b506103ca60048036038101906103c5919061228d565b610d7a565b6040516103d79190611dc7565b60405180910390f35b3480156103ec57600080fd5b5061040760048036038101906104029190612012565b610e0e565b005b60007f80ac58cd000000000000000000000000000000000000000000000000000000007bffffffffffffffffffffffffffffffffffffffffffffffffffffffff1916827bffffffffffffffffffffffffffffffffffffffffffffffffffffffff191614806104d457507f5b5e139f000000000000000000000000000000000000000000000000000000007bffffffffffffffffffffffffffffffffffffffffffffffffffffffff1916827bffffffffffffffffffffffffffffffffffffffffffffffffffffffff1916145b806104e457506104e382610e91565b5b9050919050565b6060600080546104fa906122fc565b80601f0160208091040260200160405190810160405280929190818152602001828054610526906122fc565b80156105735780601f1061054857610100808354040283529160200191610573565b820191906000526020600020905b81548152906001019060200180831161055657829003601f168201915b5050505050905090565b600061058882610efb565b6004600083815260200190815260200160002060009054906101000a900473ffffffffffffffffffffffffffffffffffffffff169050919050565b60006105ce82610aaa565b90508073ffffffffffffffffffffffffffffffffffffffff168373ffffffffffffffffffffffffffffffffffffffff160361063e576040517f08c379a00000000000000000000000000000000000000000000000000000000081526004016106359061239f565b60405180910390fd5b8073ffffffffffffffffffffffffffffffffffffffff1661065d610f46565b73ffffffffffffffffffffffffffffffffffffffff16148061068c575061068b81610686610f46565b610d7a565b5b6106cb576040517f08c379a00000000000000000000000000000000000000000000000000000000081526004016106c290612431565b60405180910390fd5b6106d58383610f4e565b505050565b6063600960009054906101000a900461ffff1661ffff161115610732576040517f08c379a00000000000000000000000000000000000000000000000000000000081526004016107299061249d565b60405180910390fd5b600042905060008162093a8060085461074b91906124ec565b106108cc576001600760009054906101000a900473ffffffffffffffffffffffffffffffffffffffff1673ffffffffffffffffffffffffffffffffffffffff166370a08231336040518263ffffffff1660e01b81526004016107ad9190611f38565b602060405180830381865afa1580156107ca573d6000803e3d6000fd5b505050506040513d601f19601f820116820180604052508101906107ee9190612535565b101561082f576040517f08c379a0000000000000000000000000000000000000000000000000000000008152600401610826906125d4565b60405180910390fd5b600061083a33610b30565b1461087a576040517f08c379a000000000000000000000000000000000000000000000000000000000815260040161087190612640565b60405180910390fd5b6703782dace9d9000090508034146108c7576040517f08c379a00000000000000000000000000000000000000000000000000000000081526004016108be906126ac565b60405180910390fd5b61091a565b6706f05b59d3b200009050803414610919576040517f08c379a0000000000000000000000000000000000000000000000000000000008152600401610910906126ac565b60405180910390fd5b5b61093833600960009054906101000a900461ffff1661ffff16611007565b6001600960008282829054906101000a900461ffff1661095891906126da565b92506101000a81548161ffff021916908361ffff160217905550600061097c610bfb565b73ffffffffffffffffffffffffffffffffffffffff163460405161099f90612741565b60006040518083038185875af1925050503d80600081146109dc576040519150601f19603f3d011682016040523d82523d6000602084013e6109e1565b606091505b5050905080610a25576040517f08c379a0000000000000000000000000000000000000000000000000000000008152600401610a1c906127a2565b60405180910390fd5b505050565b610a3b610a35610f46565b82611224565b610a7a576040517f08c379a0000000000000000000000000000000000000000000000000000000008152600401610a7190612834565b60405180910390fd5b610a858383836112b9565b505050565b610aa583838360405180602001604052806000815250610ccd565b505050565b600080610ab6836115b2565b9050600073ffffffffffffffffffffffffffffffffffffffff168173ffffffffffffffffffffffffffffffffffffffff1603610b27576040517f08c379a0000000000000000000000000000000000000000000000000000000008152600401610b1e906128a0565b60405180910390fd5b80915050919050565b60008073ffffffffffffffffffffffffffffffffffffffff168273ffffffffffffffffffffffffffffffffffffffff1603610ba0576040517f08c379a0000000000000000000000000000000000000000000000000000000008152600401610b9790612932565b60405180910390fd5b600360008373ffffffffffffffffffffffffffffffffffffffff1673ffffffffffffffffffffffffffffffffffffffff168152602001908152602001600020549050919050565b610bef6115ef565b610bf9600061166d565b565b6000600660009054906101000a900473ffffffffffffffffffffffffffffffffffffffff16905090565b606060018054610c34906122fc565b80601f0160208091040260200160405190810160405280929190818152602001828054610c60906122fc565b8015610cad5780601f10610c8257610100808354040283529160200191610cad565b820191906000526020600020905b815481529060010190602001808311610c9057829003601f168201915b5050505050905090565b610cc9610cc2610f46565b8383611733565b5050565b610cde610cd8610f46565b83611224565b610d1d576040517f08c379a0000000000000000000000000000000000000000000000000000000008152600401610d1490612834565b60405180910390fd5b610d298484848461189f565b50505050565b6060604051806080016040528060518152602001612f1460519139610d53836118fb565b604051602001610d649291906129da565b6040516020818303038152906040529050919050565b6000600560008473ffffffffffffffffffffffffffffffffffffffff1673ffffffffffffffffffffffffffffffffffffffff16815260200190815260200160002060008373ffffffffffffffffffffffffffffffffffffffff1673ffffffffffffffffffffffffffffffffffffffff16815260200190815260200160002060009054906101000a900460ff16905092915050565b610e166115ef565b600073ffffffffffffffffffffffffffffffffffffffff168173ffffffffffffffffffffffffffffffffffffffff1603610e85576040517f08c379a0000000000000000000000000000000000000000000000000000000008152600401610e7c90612a7b565b60405180910390fd5b610e8e8161166d565b50565b60007f01ffc9a7000000000000000000000000000000000000000000000000000000007bffffffffffffffffffffffffffffffffffffffffffffffffffffffff1916827bffffffffffffffffffffffffffffffffffffffffffffffffffffffff1916149050919050565b610f04816119c9565b610f43576040517f08c379a0000000000000000000000000000000000000000000000000000000008152600401610f3a906128a0565b60405180910390fd5b50565b600033905090565b816004600083815260200190815260200160002060006101000a81548173ffffffffffffffffffffffffffffffffffffffff021916908373ffffffffffffffffffffffffffffffffffffffff160217905550808273ffffffffffffffffffffffffffffffffffffffff16610fc183610aaa565b73ffffffffffffffffffffffffffffffffffffffff167f8c5be1e5ebec7d5bd14f71427d1e84f3dd0314c0f7b2291e5b200ac8c7c3b92560405160405180910390a45050565b600073ffffffffffffffffffffffffffffffffffffffff168273ffffffffffffffffffffffffffffffffffffffff1603611076576040517f08c379a000000000000000000000000000000000000000000000000000000000815260040161106d90612ae7565b60405180910390fd5b61107f816119c9565b156110bf576040517f08c379a00000000000000000000000000000000000000000000000000000000081526004016110b690612b53565b60405180910390fd5b6110cd600083836001611a0a565b6110d6816119c9565b15611116576040517f08c379a000000000000000000000000000000000000000000000000000000000815260040161110d90612b53565b60405180910390fd5b6001600360008473ffffffffffffffffffffffffffffffffffffffff1673ffffffffffffffffffffffffffffffffffffffff16815260200190815260200160002060008282540192505081905550816002600083815260200190815260200160002060006101000a81548173ffffffffffffffffffffffffffffffffffffffff021916908373ffffffffffffffffffffffffffffffffffffffff160217905550808273ffffffffffffffffffffffffffffffffffffffff16600073ffffffffffffffffffffffffffffffffffffffff167fddf252ad1be2c89b69c2b068fc378daa952ba7f163c4a11628f55a4df523b3ef60405160405180910390a4611220600083836001611a10565b5050565b60008061123083610aaa565b90508073ffffffffffffffffffffffffffffffffffffffff168473ffffffffffffffffffffffffffffffffffffffff16148061127257506112718185610d7a565b5b806112b057508373ffffffffffffffffffffffffffffffffffffffff166112988461057d565b73ffffffffffffffffffffffffffffffffffffffff16145b91505092915050565b8273ffffffffffffffffffffffffffffffffffffffff166112d982610aaa565b73ffffffffffffffffffffffffffffffffffffffff161461132f576040517f08c379a000000000000000000000000000000000000000000000000000000000815260040161132690612be5565b60405180910390fd5b600073ffffffffffffffffffffffffffffffffffffffff168273ffffffffffffffffffffffffffffffffffffffff160361139e576040517f08c379a000000000000000000000000000000000000000000000000000000000815260040161139590612c77565b60405180910390fd5b6113ab8383836001611a0a565b8273ffffffffffffffffffffffffffffffffffffffff166113cb82610aaa565b73ffffffffffffffffffffffffffffffffffffffff1614611421576040517f08c379a000000000000000000000000000000000000000000000000000000000815260040161141890612be5565b60405180910390fd5b6004600082815260200190815260200160002060006101000a81549073ffffffffffffffffffffffffffffffffffffffff02191690556001600360008573ffffffffffffffffffffffffffffffffffffffff1673ffffffffffffffffffffffffffffffffffffffff168152602001908152602001600020600082825403925050819055506001600360008473ffffffffffffffffffffffffffffffffffffffff1673ffffffffffffffffffffffffffffffffffffffff16815260200190815260200160002060008282540192505081905550816002600083815260200190815260200160002060006101000a81548173ffffffffffffffffffffffffffffffffffffffff021916908373ffffffffffffffffffffffffffffffffffffffff160217905550808273ffffffffffffffffffffffffffffffffffffffff168473ffffffffffffffffffffffffffffffffffffffff167fddf252ad1be2c89b69c2b068fc378daa952ba7f163c4a11628f55a4df523b3ef60405160405180910390a46115ad8383836001611a10565b505050565b60006002600083815260200190815260200160002060009054906101000a900473ffffffffffffffffffffffffffffffffffffffff169050919050565b6115f7610f46565b73ffffffffffffffffffffffffffffffffffffffff16611615610bfb565b73ffffffffffffffffffffffffffffffffffffffff161461166b576040517f08c379a000000000000000000000000000000000000000000000000000000000815260040161166290612ce3565b60405180910390fd5b565b6000600660009054906101000a900473ffffffffffffffffffffffffffffffffffffffff16905081600660006101000a81548173ffffffffffffffffffffffffffffffffffffffff021916908373ffffffffffffffffffffffffffffffffffffffff1602179055508173ffffffffffffffffffffffffffffffffffffffff168173ffffffffffffffffffffffffffffffffffffffff167f8be0079c531659141344cd1fd0a4f28419497f9722a3daafe3b4186f6b6457e060405160405180910390a35050565b8173ffffffffffffffffffffffffffffffffffffffff168373ffffffffffffffffffffffffffffffffffffffff16036117a1576040517f08c379a000000000000000000000000000000000000000000000000000000000815260040161179890612d4f565b60405180910390fd5b80600560008573ffffffffffffffffffffffffffffffffffffffff1673ffffffffffffffffffffffffffffffffffffffff16815260200190815260200160002060008473ffffffffffffffffffffffffffffffffffffffff1673ffffffffffffffffffffffffffffffffffffffff16815260200190815260200160002060006101000a81548160ff0219169083151502179055508173ffffffffffffffffffffffffffffffffffffffff168373ffffffffffffffffffffffffffffffffffffffff167f17307eab39ab6107e8899845ad3d59bd9653f200f220920489ca2b5937696c31836040516118929190611dc7565b60405180910390a3505050565b6118aa8484846112b9565b6118b684848484611a16565b6118f5576040517f08c379a00000000000000000000000000000000000000000000000000000000081526004016118ec90612de1565b60405180910390fd5b50505050565b60606000600161190a84611b9d565b01905060008167ffffffffffffffff811115611929576119286120df565b5b6040519080825280601f01601f19166020018201604052801561195b5781602001600182028036833780820191505090505b509050600082602001820190505b6001156119be578080600190039150507f3031323334353637383961626364656600000000000000000000000000000000600a86061a8153600a85816119b2576119b1612e01565b5b04945060008503611969575b819350505050919050565b60008073ffffffffffffffffffffffffffffffffffffffff166119eb836115b2565b73ffffffffffffffffffffffffffffffffffffffff1614159050919050565b50505050565b50505050565b6000611a378473ffffffffffffffffffffffffffffffffffffffff16611cf0565b15611b90578373ffffffffffffffffffffffffffffffffffffffff1663150b7a02611a60610f46565b8786866040518563ffffffff1660e01b8152600401611a829493929190612e85565b6020604051808303816000875af1925050508015611abe57506040513d601f19601f82011682018060405250810190611abb9190612ee6565b60015b611b40573d8060008114611aee576040519150601f19603f3d011682016040523d82523d6000602084013e611af3565b606091505b506000815103611b38576040517f08c379a0000000000000000000000000000000000000000000000000000000008152600401611b2f90612de1565b60405180910390fd5b805181602001fd5b63150b7a0260e01b7bffffffffffffffffffffffffffffffffffffffffffffffffffffffff1916817bffffffffffffffffffffffffffffffffffffffffffffffffffffffff191614915050611b95565b600190505b949350505050565b600080600090507a184f03e93ff9f4daa797ed6e38ed64bf6a1f0100000000000000008310611bfb577a184f03e93ff9f4daa797ed6e38ed64bf6a1f0100000000000000008381611bf157611bf0612e01565b5b0492506040810190505b6d04ee2d6d415b85acef81000000008310611c38576d04ee2d6d415b85acef81000000008381611c2e57611c2d612e01565b5b0492506020810190505b662386f26fc100008310611c6757662386f26fc100008381611c5d57611c5c612e01565b5b0492506010810190505b6305f5e1008310611c90576305f5e1008381611c8657611c85612e01565b5b0492506008810190505b6127108310611cb5576127108381611cab57611caa612e01565b5b0492506004810190505b60648310611cd85760648381611cce57611ccd612e01565b5b0492506002810190505b600a8310611ce7576001810190505b80915050919050565b6000808273ffffffffffffffffffffffffffffffffffffffff163b119050919050565b6000604051905090565b600080fd5b600080fd5b60007fffffffff0000000000000000000000000000000000000000000000000000000082169050919050565b611d5c81611d27565b8114611d6757600080fd5b50565b600081359050611d7981611d53565b92915050565b600060208284031215611d9557611d94611d1d565b5b6000611da384828501611d6a565b91505092915050565b60008115159050919050565b611dc181611dac565b82525050565b6000602082019050611ddc6000830184611db8565b92915050565b600081519050919050565b600082825260208201905092915050565b60005b83811015611e1c578082015181840152602081019050611e01565b60008484015250505050565b6000601f19601f8301169050919050565b6000611e4482611de2565b611e4e8185611ded565b9350611e5e818560208601611dfe565b611e6781611e28565b840191505092915050565b60006020820190508181036000830152611e8c8184611e39565b905092915050565b6000819050919050565b611ea781611e94565b8114611eb257600080fd5b50565b600081359050611ec481611e9e565b92915050565b600060208284031215611ee057611edf611d1d565b5b6000611eee84828501611eb5565b91505092915050565b600073ffffffffffffffffffffffffffffffffffffffff82169050919050565b6000611f2282611ef7565b9050919050565b611f3281611f17565b82525050565b6000602082019050611f4d6000830184611f29565b92915050565b611f5c81611f17565b8114611f6757600080fd5b50565b600081359050611f7981611f53565b92915050565b60008060408385031215611f9657611f95611d1d565b5b6000611fa485828601611f6a565b9250506020611fb585828601611eb5565b9150509250929050565b600080600060608486031215611fd857611fd7611d1d565b5b6000611fe686828701611f6a565b9350506020611ff786828701611f6a565b925050604061200886828701611eb5565b9150509250925092565b60006020828403121561202857612027611d1d565b5b600061203684828501611f6a565b91505092915050565b61204881611e94565b82525050565b6000602082019050612063600083018461203f565b92915050565b61207281611dac565b811461207d57600080fd5b50565b60008135905061208f81612069565b92915050565b600080604083850312156120ac576120ab611d1d565b5b60006120ba85828601611f6a565b92505060206120cb85828601612080565b9150509250929050565b600080fd5b600080fd5b7f4e487b7100000000000000000000000000000000000000000000000000000000600052604160045260246000fd5b61211782611e28565b810181811067ffffffffffffffff82111715612136576121356120df565b5b80604052505050565b6000612149611d13565b9050612155828261210e565b919050565b600067ffffffffffffffff821115612175576121746120df565b5b61217e82611e28565b9050602081019050919050565b82818337600083830152505050565b60006121ad6121a88461215a565b61213f565b9050828152602081018484840111156121c9576121c86120da565b5b6121d484828561218b565b509392505050565b600082601f8301126121f1576121f06120d5565b5b813561220184826020860161219a565b91505092915050565b6000806000806080858703121561222457612223611d1d565b5b600061223287828801611f6a565b945050602061224387828801611f6a565b935050604061225487828801611eb5565b925050606085013567ffffffffffffffff81111561227557612274611d22565b5b612281878288016121dc565b91505092959194509250565b600080604083850312156122a4576122a3611d1d565b5b60006122b285828601611f6a565b92505060206122c385828601611f6a565b9150509250929050565b7f4e487b7100000000000000000000000000000000000000000000000000000000600052602260045260246000fd5b6000600282049050600182168061231457607f821691505b602082108103612327576123266122cd565b5b50919050565b7f4552433732313a20617070726f76616c20746f2063757272656e74206f776e6560008201527f7200000000000000000000000000000000000000000000000000000000000000602082015250565b6000612389602183611ded565b91506123948261232d565b604082019050919050565b600060208201905081810360008301526123b88161237c565b9050919050565b7f4552433732313a20617070726f76652063616c6c6572206973206e6f7420746f60008201527f6b656e206f776e6572206f7220617070726f76656420666f7220616c6c000000602082015250565b600061241b603d83611ded565b9150612426826123bf565b604082019050919050565b6000602082019050818103600083015261244a8161240e565b9050919050565b7f416c6c20746865204e46547320686173206265656e206d696e74656400000000600082015250565b6000612487601c83611ded565b915061249282612451565b602082019050919050565b600060208201905081810360008301526124b68161247a565b9050919050565b7f4e487b7100000000000000000000000000000000000000000000000000000000600052601160045260246000fd5b60006124f782611e94565b915061250283611e94565b925082820190508082111561251a576125196124bd565b5b92915050565b60008151905061252f81611e9e565b92915050565b60006020828403121561254b5761254a611d1d565b5b600061255984828501612520565b91505092915050565b7f596f7520617265206e6f74206669727374436f6c6c656374696f6e204e46542060008201527f6f776e6572000000000000000000000000000000000000000000000000000000602082015250565b60006125be602583611ded565b91506125c982612562565b604082019050919050565b600060208201905081810360008301526125ed816125b1565b9050919050565b7f596f7520616c7265616479206d696e74656420796f7572204e46540000000000600082015250565b600061262a601b83611ded565b9150612635826125f4565b602082019050919050565b600060208201905081810360008301526126598161261d565b9050919050565b7f7072696365206973206e6f7420636f7272656374000000000000000000000000600082015250565b6000612696601483611ded565b91506126a182612660565b602082019050919050565b600060208201905081810360008301526126c581612689565b9050919050565b600061ffff82169050919050565b60006126e5826126cc565b91506126f0836126cc565b9250828201905061ffff81111561270a576127096124bd565b5b92915050565b600081905092915050565b50565b600061272b600083612710565b91506127368261271b565b600082019050919050565b600061274c8261271e565b9150819050919050565b7f5061796d656e74206661696c0000000000000000000000000000000000000000600082015250565b600061278c600c83611ded565b915061279782612756565b602082019050919050565b600060208201905081810360008301526127bb8161277f565b9050919050565b7f4552433732313a2063616c6c6572206973206e6f7420746f6b656e206f776e6560008201527f72206f7220617070726f76656400000000000000000000000000000000000000602082015250565b600061281e602d83611ded565b9150612829826127c2565b604082019050919050565b6000602082019050818103600083015261284d81612811565b9050919050565b7f4552433732313a20696e76616c696420746f6b656e2049440000000000000000600082015250565b600061288a601883611ded565b915061289582612854565b602082019050919050565b600060208201905081810360008301526128b98161287d565b9050919050565b7f4552433732313a2061646472657373207a65726f206973206e6f74206120766160008201527f6c6964206f776e65720000000000000000000000000000000000000000000000602082015250565b600061291c602983611ded565b9150612927826128c0565b604082019050919050565b6000602082019050818103600083015261294b8161290f565b9050919050565b600081905092915050565b600061296882611de2565b6129728185612952565b9350612982818560208601611dfe565b80840191505092915050565b7f2e6a736f6e000000000000000000000000000000000000000000000000000000600082015250565b60006129c4600583612952565b91506129cf8261298e565b600582019050919050565b60006129e6828561295d565b91506129f2828461295d565b91506129fd826129b7565b91508190509392505050565b7f4f776e61626c653a206e6577206f776e657220697320746865207a65726f206160008201527f6464726573730000000000000000000000000000000000000000000000000000602082015250565b6000612a65602683611ded565b9150612a7082612a09565b604082019050919050565b60006020820190508181036000830152612a9481612a58565b9050919050565b7f4552433732313a206d696e7420746f20746865207a65726f2061646472657373600082015250565b6000612ad1602083611ded565b9150612adc82612a9b565b602082019050919050565b60006020820190508181036000830152612b0081612ac4565b9050919050565b7f4552433732313a20746f6b656e20616c7265616479206d696e74656400000000600082015250565b6000612b3d601c83611ded565b9150612b4882612b07565b602082019050919050565b60006020820190508181036000830152612b6c81612b30565b9050919050565b7f4552433732313a207472616e736665722066726f6d20696e636f72726563742060008201527f6f776e6572000000000000000000000000000000000000000000000000000000602082015250565b6000612bcf602583611ded565b9150612bda82612b73565b604082019050919050565b60006020820190508181036000830152612bfe81612bc2565b9050919050565b7f4552433732313a207472616e7366657220746f20746865207a65726f2061646460008201527f7265737300000000000000000000000000000000000000000000000000000000602082015250565b6000612c61602483611ded565b9150612c6c82612c05565b604082019050919050565b60006020820190508181036000830152612c9081612c54565b9050919050565b7f4f776e61626c653a2063616c6c6572206973206e6f7420746865206f776e6572600082015250565b6000612ccd602083611ded565b9150612cd882612c97565b602082019050919050565b60006020820190508181036000830152612cfc81612cc0565b9050919050565b7f4552433732313a20617070726f766520746f2063616c6c657200000000000000600082015250565b6000612d39601983611ded565b9150612d4482612d03565b602082019050919050565b60006020820190508181036000830152612d6881612d2c565b9050919050565b7f4552433732313a207472616e7366657220746f206e6f6e20455243373231526560008201527f63656976657220696d706c656d656e7465720000000000000000000000000000602082015250565b6000612dcb603283611ded565b9150612dd682612d6f565b604082019050919050565b60006020820190508181036000830152612dfa81612dbe565b9050919050565b7f4e487b7100000000000000000000000000000000000000000000000000000000600052601260045260246000fd5b600081519050919050565b600082825260208201905092915050565b6000612e5782612e30565b612e618185612e3b565b9350612e71818560208601611dfe565b612e7a81611e28565b840191505092915050565b6000608082019050612e9a6000830187611f29565b612ea76020830186611f29565b612eb4604083018561203f565b8181036060830152612ec68184612e4c565b905095945050505050565b600081519050612ee081611d53565b92915050565b600060208284031215612efc57612efb611d1d565b5b6000612f0a84828501612ed1565b9150509291505056fe68747470733a2f2f676174657761792e70696e6174612e636c6f75642f697066732f516d6163386d55794e51374a724a57416f725a7653436a72734d7a4b42354d4a757650704a666e76383564686a642fa2646970667358221220b94e66f3423717b85e5ad48e4068ef5e19753840b0401c075476cd3125fa6fb464736f6c63430008120033",
  "immutableReferences": {},
  "source": "// SPDX-License-Identifier: MIT\r\npragma solidity ^0.8.18;\r\n\r\nimport \"../../node_modules/@openzeppelin/contracts/token/ERC721/ERC721.sol\"; \r\nimport \"../../node_modules/@openzeppelin//contracts/access/Ownable.sol\";\r\n\r\nimport \"./FirstCollection.sol\";\r\n\r\ncontract SecondCollection is ERC721, Ownable  {\r\n\r\n    //state variables\r\n    FirstCollection firstCollection;\r\n    uint256 deploymentTime;\r\n    uint16 tokenId = 0;\r\n    string constant baseURI = \"https://gateway.pinata.cloud/ipfs/Qmac8mUyNQ7JrJWAorZvSCjrsMzKB5MJuvPpJfnv85dhjd/\";\r\n\r\n    constructor(address firstCollectionAddress) ERC721(\"Second Collection\", \"2CO\") {\r\n        firstCollection = FirstCollection(firstCollectionAddress);\r\n        deploymentTime = block.timestamp;\r\n     }\r\n\r\n    function mint() external payable {\r\n        require(tokenId <= 99, \"All the NFTs has been minted\");\r\n        \r\n        uint256 currentTime = block.timestamp;\r\n        uint256 price;\r\n\r\n        //Only owners of First Collection can mint 1 NFT during first week\r\n        if(deploymentTime + 1 weeks >= currentTime){\r\n            require(firstCollection.balanceOf(msg.sender) >= 1, \"You are not firstCollection NFT owner\");\r\n            require(balanceOf(msg.sender) == 0, \"You already minted your NFT\");\r\n\r\n            price = 0.25 ether;\r\n            require(msg.value == price, \"price is not correct\");\r\n        } else {\r\n            price = 0.50 ether;\r\n            require(msg.value == price, \"price is not correct\");\r\n        }\r\n\r\n        _mint(msg.sender, tokenId);\r\n        tokenId += 1;\r\n\r\n        (bool success, ) = payable(owner()).call{value: msg.value}(\"\"); //Pay the NFT and send the ETH to the owner\r\n        require(success, \"Payment fail\");\r\n    }\r\n\r\n    function tokenURI(uint tokenNum) public pure override returns(string memory)  {\r\n        return string(abi.encodePacked(baseURI, Strings.toString(tokenNum), \".json\"));\r\n    }\r\n\r\n}",
  "sourcePath": "D:\\Documentos\\Trabajos\\NFT_test_ERC721\\src\\contracts\\SecondCollection.sol",
  "compiler": {
    "name": "solc",
    "version": "0.8.18+commit.87f61d96.Emscripten.clang"
  },
  "schemaVersion": "3.4.8",
  "updatedAt": "2023-04-21T06:12:49.653Z",
  "devdoc": {
    "events": {
      "Approval(address,address,uint256)": {
        "details": "Emitted when `owner` enables `approved` to manage the `tokenId` token."
      },
      "ApprovalForAll(address,address,bool)": {
        "details": "Emitted when `owner` enables or disables (`approved`) `operator` to manage all of its assets."
      },
      "Transfer(address,address,uint256)": {
        "details": "Emitted when `tokenId` token is transferred from `from` to `to`."
      }
    },
    "kind": "dev",
    "methods": {
      "approve(address,uint256)": {
        "details": "See {IERC721-approve}."
      },
      "balanceOf(address)": {
        "details": "See {IERC721-balanceOf}."
      },
      "getApproved(uint256)": {
        "details": "See {IERC721-getApproved}."
      },
      "isApprovedForAll(address,address)": {
        "details": "See {IERC721-isApprovedForAll}."
      },
      "name()": {
        "details": "See {IERC721Metadata-name}."
      },
      "owner()": {
        "details": "Returns the address of the current owner."
      },
      "ownerOf(uint256)": {
        "details": "See {IERC721-ownerOf}."
      },
      "renounceOwnership()": {
        "details": "Leaves the contract without owner. It will not be possible to call `onlyOwner` functions anymore. Can only be called by the current owner. NOTE: Renouncing ownership will leave the contract without an owner, thereby removing any functionality that is only available to the owner."
      },
      "safeTransferFrom(address,address,uint256)": {
        "details": "See {IERC721-safeTransferFrom}."
      },
      "safeTransferFrom(address,address,uint256,bytes)": {
        "details": "See {IERC721-safeTransferFrom}."
      },
      "setApprovalForAll(address,bool)": {
        "details": "See {IERC721-setApprovalForAll}."
      },
      "supportsInterface(bytes4)": {
        "details": "See {IERC165-supportsInterface}."
      },
      "symbol()": {
        "details": "See {IERC721Metadata-symbol}."
      },
      "transferFrom(address,address,uint256)": {
        "details": "See {IERC721-transferFrom}."
      },
      "transferOwnership(address)": {
        "details": "Transfers ownership of the contract to a new account (`newOwner`). Can only be called by the current owner."
      }
    },
    "version": 1
  },
  "userdoc": {
    "kind": "user",
    "methods": {},
    "version": 1
  }
}